:020000040800F2
:1000000010400020F9020008433A000819230008B4
:1000100051390008990B0008755B000800000000CA
:100020000000000000000000000000005957000818
:100030009D0D00080000000093510008955700082E
:100040001303000813030008130300081303000838
:100050001303000813030008130300081303000828
:10006000A70D000813030008AD0D000813030008D6
:100070001303000813030008130300081303000808
:1000800013030008130300081303000813030008F8
:10009000130300081303000813030008B30D00083E
:1000A00013030008130300081303000813030008D8
:1000B00013030008130300081303000813030008C8
:1000C00013030008130300081303000813030008B8
:1000D00013030008130300081303000813030008A8
:1000E0009F0D000813030008130300081303000802
:1000F0001303000813030008130300081303000888
:100100001303000813030008130300081303000877
:100110001303000813030008130300081303000867
:100120001303000813030008130300081303000857
:100130001303000813030008130300081303000847
:100140001303000813030008130300081303000837
:100150001303000813030008130300081303000827
:100160001303000813030008130300081303000817
:100170001303000813030008130300080000000025
:10018000130300081303000800F002F800F044F81D
:100190000AA090E8000C82448344AAF10107DA45E2
:1001A00001D100F039F8AFF2090EBAE80F0013F0F0
:1001B000010F18BFFB1A43F001031847886D0000B8
:1001C000A86D0000103A24BF78C878C1FAD8520749
:1001D00024BF30C830C144BF04680C6070470000C1
:1001E0000023002400250026103A28BF78C1FBD840
:1001F000520728BF30C148BF0B607047642900F028
:100200005581752900F05281002070471FB506F016
:100210000DFE1FBD10B510BD00F04CFB1146FFF7E1
:10022000F5FF06F0DEF800F06AFB03B4FFF7F2FF1B
:1002300003BC00F06DFB00002C4B19680868B0E8A7
:10024000F04F80F30988BFF36F8F4FF0000080F309
:10025000118870470000000008480068006880F3BB
:1002600008884FF0000080F3148862B661B6BFF3CF
:100270004F8FBFF36F8F00DF00BF00BF08ED00E0BE
:10028000DFF80C00016841F470010160704700BFA5
:1002900088ED00E0EFF30980BFF36F8F134B1A680E
:1002A0001EF0100F08BF20ED108A20E9F04F1060FB
:1002B00009B44FF0500080F31188BFF34F8FBFF3A4
:1002C0006F8F06F073FB4FF0000080F3118809BCBC
:1002D00019680868B0E8F04F1EF0100F08BFB0ECC6
:1002E000108A80F30988BFF36F8F70479000002059
:1002F000EFF3058070470000094880470948004730
:10030000FEE7FEE7FEE7FEE7FEE7FEE7FEE7FEE7C5
:10031000FEE7FEE704480549054A064B7047000022
:100320004558000889010008103A002010400020BC
:10033000103C0020103C002053EA020C00F06980C1
:100340002DE9F04B4FF00006002B1FBFB3FA83F5E9
:1003500003FA05F424FA05F65E4012BF1643B2FA1A
:1003600082F502FA05F4C5F120051EBF22FA05FC4C
:1003700044EA0C04203556EA044C4FEA144418BFF2
:10038000641C4FF000084FF00009904271EB030C21
:1003900039D3002919BFB1FA81F701FA07F6B0FA8B
:1003A00080F700FA07F6C7F120071EBF20FA07FC06
:1003B00046EA0C062037B6FBF4FCA7EB0507103F16
:1003C00007F01F0BCBF120060CFA0BFB2CFA06F6FC
:1003D00044BFB3460026202FA4BF5E464FF0000B5B
:1003E0005BEA060C08BF4FF0010B19EB0B09ABFBE6
:1003F000027C48EB0608C01B06FB02CC0BFB03CCBF
:1004000071EB0C01C1E70B46024641464846BDE888
:10041000F08B13B54FF000004FF00001AFF30080F8
:10042000BDE81C40704700000FB41CB50C0007AAC3
:10043000009001D02044401E074B7B446946019048
:10044000069800F00EFA002C03D06946002000F058
:100450001BFA1CBC5DF814FB5504000070B5044683
:1004600085690068C10601D5302600E02026C00756
:1004700007D070BDD4E9012130469047206A401C66
:1004800020626D1EF6D570BD70B504468569007892
:10049000C00707D170BDD4E9012120209047206A10
:1004A000401C20626D1EF6D570BD00002DE9F041A4
:1004B0000646002410687529314616A510D0AFF302
:1004C0000080002802DA404213A507E031688A075D
:1004D00001D512A502E0490704D511A5012401E0C8
:1004E000AFF3008000210A2206F1240709E0B0FBE7
:1004F000F2FCB0FBF2F302FB1C00303078541846DB
:10050000491C0028F3D123462A463046BDE8F04175
:1005100000F049B9000000002D0000002B00000091
:10052000200000002DE9F0474FF0000A89460446FC
:10053000C0F820A02046E1688847002876D025280A
:1005400006D0D4E901219047206A401C2062F1E7DF
:10055000E168204600268847C4F81CA0054600270D
:10056000C4F818A02A2D09D0284605F033FF38B367
:1005700004EB8708303DC8F8185019E059F8041BFF
:10058000204604EB87029161E1688847012F054608
:1005900018D1E069002820DA26F020061DE0D8F8FE
:1005A000180000EB800005EB40003038C8F8180058
:1005B0002046E1688847054605F00CFF0028EED18B
:1005C000012F0AD02E2D08D12046E16888477F1CD4
:1005D0000546022F46F02006C4DBA069002803DA96
:1005E000404246F00106A061F00701D026F0100657
:1005F0006C2D0AD0682D08D04C2D39D06A2D35D0FD
:10060000742D35D07A2D33D016E0E1682F46204680
:100610008847B84205460AD16C2F27D04FF4806036
:10062000E168064320468847054605E027E06C2F31
:100630001AD04FF4807006430DB3A5F1410019287C
:1006400002D8203546F400664A46294620462660F0
:100650004E46FFF7D3FD80B101280BD0F61D26F0E2
:10066000070000F1080965E74020E4E78020D7E7AC
:100670000020D5E706F104095CE7284661E7206A17
:10068000BDE8F08710B5203AC0F00B80B1E81850F3
:10069000203AA0E81850B1E81850A0E81850BFF46C
:1006A000F5AF5FEA027C24BFB1E81850A0E818500B
:1006B00044BF18C918C0BDE810405FEA827C24BF5F
:1006C00051F8043B40F8043B08BF7047D20728BFED
:1006D00031F8023B48BF11F8012B28BF20F8023B3C
:1006E00048BF00F8012B704702F0FF0343EA0322E2
:1006F00042EA024200F002B84FF000020429C0F0C2
:10070000128010F0030C00F01B80CCF1040CBCF143
:10071000020F18BF00F8012BA8BF20F8022BA1EB95
:100720000C0100F00DB85FEAC17C24BF00F8012B7A
:1007300000F8012B48BF00F8012B70474FF0000272
:1007400000B5134694469646203922BFA0E80C50C7
:10075000A0E80C50B1F12001BFF4F7AF090728BFA2
:10076000A0E80C5048BF0CC05DF804EB890028BF1E
:1007700040F8042B08BF704748BF20F8022B11F047
:10078000804F18BF00F8012B7047704770477047C3
:1007900010B500F087F8006810BD10B5044600F0F1
:1007A00081F8046010BD2DE9F0470D469946924648
:1007B000044600F124080168880604D5E06921F0A8
:1007C0001001216000E00120A84201DD471B00E08C
:1007D0000027A1697A1902EB0900081AA0612078A4
:1007E000C00602D42046FFF739FE002608E0D4E90F
:1007F00001211AF806009047206A401C761C2062EE
:100800004E45F4DB2078C0060AD52046FFF726FEC9
:1008100006E0D4E9012130209047206A401C206284
:10082000381EA7F10107F4DC07E0D4E9012118F82C
:1008300005009047206A401C2062281EA5F1010592
:10084000F3DC2046FFF720FE2078000602D50220C8
:10085000BDE8F0870120FBE701694A1C02610878C6
:10086000704700B58FB0CDE90131002105910549F0
:100870007944CDE9031011466846FFF753FE0FB0E7
:1008800000BD0000E5FFFFFF0A6802F8010B0A60E7
:100890007047D1E900239A4202D2531C0B601070BA
:1008A0007047000000487047AC390020004870478E
:1008B000AC3900207546FFF7F9FFAE4605006946E2
:1008C000534620F00700854618B020B5FFF722FDFB
:1008D000BDE820404FF000064FF000074FF0000841
:1008E0004FF0000B21F00701AC46ACE8C009ACE8C2
:1008F000C009ACE8C009ACE8C0098D46704710B526
:100900000446AFF300802046BDE81040FFF78DBCE1
:1009100001491820ABBEFEE7260002007047B5EE85
:10092000C00AF1EE10FA01DAB1EE400A7047B5EEF6
:10093000C00AF1EE10FA01DAB1EE400A7047000089
:1009400030B587B014216846FFF7F8FE39480168D2
:1009500041F0040101600068374D00F004000122FD
:1009600005901102284600F0C6FB012251022846DC
:1009700000F0C1FB4FF44070009011200124CDE93C
:100980000104022003906946284600F0B7FA1420BB
:1009900000F094FAAE2004F08BF9D52004F088F929
:1009A000802004F085F9A82004F082F93F2004F0AB
:1009B0007FF9D32004F07CF9002004F079F940207D
:1009C00004F076F9A12004F073F9C82004F070F95E
:1009D000DA2004F06DF9122004F06AF9812004F0A5
:1009E00067F9CF2004F064F9D92004F061F9F1200F
:1009F00004F05EF9DB2004F05BF9302004F058F9D4
:100A0000A42004F055F9A62004F052F98D2004F03A
:100A10004FF9142004F04CF9AF2004F049F904F028
:100A20008DF804F015F900F06BFB044948600C7078
:100A300007B030BD3038024000080240740000208A
:100A400010B5094C207800280CD000F059FB6168E3
:100A5000411AC82906D3606004F070F8BDE8104060
:100A600004F0F6B810BD0000740000202DE9FC4130
:100A700000240425CDE900544FF4C07823464246B3
:100A800017A1194806F00AF8CDE9005407460023DB
:100A9000EA0116A1164806F001F806460320CDE942
:100AA00000040023C02213A1134805F0F7FF0546F8
:100AB0000120CDE900040023424610A1114805F0B1
:100AC000EDFF012F05D1012E03D1012D01D1012808
:100AD00002D00020BDE8FC8105F028FFF9E7000006
:100AE00072656D6F74650000055700086E617600D1
:100AF0002142000870696400C55200086F6C65648B
:100B000000000000434C000810B502F06BFF02F03B
:100B10008DFF00F065F904F065FB04F099FD02F02B
:100B200057FA03F0FBF8FFF70BFFBDE810409FED0D
:100B3000041ADFED040A9FED040A03F021B9000056
:100B4000000096430000FA4300803B45FFF78EBF4C
:100B500010B503F00FF920B104F040FD50B103F0DF
:100B600095F904F083FC00BF04F0B8FBBDE8104029
:100B7000FFF766BF03F092F9F6E7B7EE001A31EE21
:100B8000601A60EE800A21EE001A60EE800A00EE24
:100B9000801AB0EE410A7047FEE7000070B51446B7
:100BA0002DED048B0D4603F041FB9FED289AF0EEEE
:100BB000490AFFF7E2FFF0EE408A284603F036FBD1
:100BC000F0EE490AFFF7D9FFB0EE408A204603F065
:100BD0002DFBF0EE490AFFF7D0FFF0EE409AB0EEA1
:100BE000680AFFF79CFEB0EE409AB0EE480AFFF7A5
:100BF00096FE10EE100A1649DFED160A9FED161A42
:100C0000884209DD69EE011AF4EEC01AF1EE10FA1D
:100C100002D2F0EE608A0CE019EE100A884208DD7C
:100C200020EE010AB4EEC90AF1EE10FA01D2B0EEDC
:100C3000608AB0EE691AF0EE480AB0EE680ABDECC0
:100C4000048BBDE8704000F009B80000CDCC4C3EEC
:100C5000EC51383E000000006666E63F70B52DEDB1
:100C6000068BF0EE418AB0EE609AB7EE001AFFEE06
:100C7000000A00F083F8F0EE401AB7EE001AB0EE6A
:100C8000618AFFEE000AB0EE490A00F077F8F0EE54
:100C9000400AB7EE001AB0EE609AFFEE000AB0EE1E
:100CA000680A00F06BF838EE491A78EE090A71EE1E
:100CB000008A70EEC09A30EE809A31EE40AAB0EE13
:100CC000680AFFF72CFEB0EE408AB0EE690AFFF723
:100CD00026FEB4EEC80AF1EE10FA05DDB0EE690AA0
:100CE000FFF71DFEB0EE408AB0EE490AFFF717FE8F
:100CF000B4EEC80AF1EE10FA05DDB0EE490AFFF7CE
:100D00000EFEB0EE408AB0EE4A0AFFF708FEB4EEDF
:100D1000C80AF1EE10FA05DDB0EE4A0AFFF7FFFD52
:100D2000B0EE408A18EE100AB0F17E5F01DAB7EE3D
:100D3000008A8AEE080A9FED10AA20EE0A0A04F043
:100D40000DFD89EE080A064604F008FD89EE880AC2
:100D5000054620EE0A0A04F001FD88EE880A0446E2
:100D600004F0FCFCBDEC068B33462A462146BDE868
:100D7000704004F07BBA0000EC51783FB4EEE00A1A
:100D8000F1EE10FA02D2B0EE600A7047B4EEC10A7A
:100D9000F1EE10FAF9DDB0EE410A704770474FF4FA
:100DA000006000F09FB8042000F09CB8102000F014
:100DB00099B8802000F096B870B50546042801D394
:100DC000002070BDEFF3108472B600F059F80348AC
:100DD00050F82500002CF4D162B670BD54020020FA
:100DE0002DE9F04100240D4D0D4F264655F83400F5
:100DF0003C2101F029F908B100F05EF855F8340003
:100E00000068466205EBC400C68047F82460641C95
:100E1000E4B2042CEAD3BDE8F08100000000002019
:100E20005402002030B5EFF3108272B600200A4C55
:100E30000A4B014644F8201053F830502D6869627F
:100E400003EBC005401CC0B2E9800428F2D3002A9D
:100E500000D162B630BD0000540200200000002026
:100E600070B5EFF3108572B60024204600F008F844
:100E7000641CE4B2042CF8D3002D00D162B670BD1E
:100E800010B5042812D20A4A52F830100968496A8B
:100E900002EBC002D388D180CB1A064951F820401A
:100EA00092F9042013FB024241F8202010BD0000FB
:100EB000000000205402002072B6FEE770B5044620
:100EC00000F01EF90546601C02D004480078044476
:100ED00000F016F9401BA042FAD370BD800000203C
:100EE00070470000044910B50A68024202D0086049
:100EF000FFF7F6FF10BD0000143C01402DE9F84F4C
:100F0000DFF8BCA10022012503264FF00F090AF1EA
:100F1000040BAAF1040E00BF0B6805FA02F423408B
:100F2000A34270D10F7907F00307012F01D0022FE0
:100F300016D187684FEA420806FA08FC27EA0C0730
:100F4000D1F80CC00CFA08FC4CEA070CC0F808C039
:100F50004768A7430C79C4F3001494403C434460B1
:100F60000C79E443A4070AD0C4684FEA420C06FA9D
:100F70000CF7BC438F6807FA0CF72743C7600C795E
:100F800004F00304022C12D1D40800EB840CDCF82A
:100F900020405707FF0E09FA07F824EA0804D1F8A1
:100FA000108008FA07F848EA0408CCF820800468A2
:100FB0004FEA420C06FA0CF7BC430F7907F003071F
:100FC00007FA0CF7274307604C6814F4403F70D0D1
:100FD0003C4C276847F480472760246822F00307C9
:100FE00004F480440094384C07EB040CDCF8084807
:100FF00097074FEA177809FA08F7BC43334FB8420E
:1010000002D1002724E054E0314FB84201D101273A
:101010001EE0304FB84201D1022719E02E4FB842EE
:1010200001D1032714E02D4FB84201D104270FE06E
:101030002B4FB84201D105270AE02A4FB84201D10F
:10104000062705E0284FB84201D1072700E008270E
:1010500007FA08F72743CCF80878DAF80040574633
:10106000D1F804C09C435FEACC2C00D51C433C6003
:10107000DBF800405F46D1F804C09C435FEA8C2C4B
:1010800000D51C433C60DEF800407746D1F804C030
:101090009C435FEA8C3C00D51C433C60084F083FF2
:1010A0003C68D1F804C09C435FEACC3C00D51C43AB
:1010B0003C60521C102AFFF42FAFBDE8F88F0000EF
:1010C000083C01404438024000300140000002402A
:1010D0000004024000080240000C024000100240E0
:1010E0000014024000180240001C02400069084041
:1010F00000D0012070470AB1816170470904FBE705
:1011000001488068704700008000002070B504002E
:1011100025D094F83D00002520B984F83C502046A5
:1011200000F052FA242084F83D002068016821F084
:10113000010101602068016841F4004101602068FC
:10114000016821F40041016000F096FB4D4A61689E
:10115000914201D84C4900E04C49884201D201201B
:1011600070BD4B492368B0FBF1F15E6826F03F0685
:101170000E435E606368934206D94FF496735943F9
:101180004FF47A73B1FBF3F12368491C1E6A26F011
:101190003F06314319626168914210D84900401EF0
:1011A000B0FBF1F2521CC2F30B02042A01D204205C
:1011B00022E0B0FBF1F0401CC0F30B001CE0A26881
:1011C000F2B301EBC10303EB0116431EB3FBF6F3CD
:1011D0005B1C43F480431B0549D092B301EBC10271
:1011E00002EB0111401EB0FBF1F0401CC0F30B00FC
:1011F00040F4804040F400402168CA694CF6FF7317
:101200009A431043C861D4E907100143206802687B
:1012100022F0C00211430160D4E9030101432068B8
:10122000826848F2FF339A4311438160D4E9050193
:1012300008432168CA6822F0FF021043C86001E039
:101240000EE016E02068016841F0010101602564AC
:10125000202084F83D00256384F83E50002070BDB6
:1012600001EB4106431EB3FBF6F35B1CB3E7012021
:10127000C2E701EB4101401EB0FBF1F0401CC0F39E
:101280000B00B7E7A086010080841E0000093D0026
:1012900040420F002DE9FF4F83B09A46DDE91187E8
:1012A00093460446DDF84090FFF72AFF054694F880
:1012B0003D00202870D11923012274492046009551
:1012C00001F040F90028F5D194F83C00012863D0E2
:1012D000012084F83C0020680168C90703D1016837
:1012E00041F0010101602068016821F400610160A2
:1012F000222084F83D00402084F83E000026266429
:10130000C4F82490A4F82A80608D20856048E062AB
:10131000CDE9007553465A462046049901F014F869
:10132000002879D1208DD0B1012821D00228206851
:1013300024D0416980690090208D032866D8012857
:101340002BD0544902283B464FF00002009557D05D
:101350008846204601F0F6F800285DD13AE0206882
:10136000416981690091016841F4007101607DE08B
:101370002068016821F480610160F0E7016821F4D0
:10138000806101602068016841F4006101602068AB
:1013900041698069009069E075E02A463946204637
:1013A00001F076F988BB54E02068016841F40071CF
:1013B000016020680069616A0870606A401C6062B0
:1013C000218D491E2185618D491E6185216809692C
:1013D000017042E02068016821F4806101602068AA
:1013E0000069616A0870606A401C6062208D401E5E
:1013F0002085608D401E60853B4600224146009559
:10140000204601F09FF800B9CEE705E02A463946AC
:10141000204601F03DF918B1012007B0BDE8F08F7A
:1014200020680069616A0870606A401C6062208DF3
:10143000401E81B22185608D401E60852068426912
:10144000D243520712D4032903D1016821F48061E9
:10145000016020680069616A0870606A401C60620F
:10146000208D401E2085608D401E6085208D0028C7
:101470007FF462AF202084F83D0084F83E6084F859
:101480003C600020C9E70220C7E70000020010000E
:101490000000FFFF040001002DE9FF4F83B09A46D2
:1014A000DDE9119793460446DDF84080FFF728FEFA
:1014B000054694F83D0020287FD119230122404998
:1014C0002046009501F03EF8002876D194F83C00C3
:1014D000012872D0012084F83C0020680168C90707
:1014E00003D1016841F0010101602068016821F425
:1014F00000610160212084F83D00402084F83E0016
:1015000000262664C4F82480A4F82A90608D2085E3
:101510002C48E062CDE9007553465A4620460499AE
:1015200000F090FF70B930E02A463946204601F0BD
:10153000E7F858B1206C042804D12068016841F410
:1015400000710160012007B0BDE8F08F606A21687A
:1015500000780861606A401C6062218D491E89B272
:101560002185628D521E628522685369DB435B07C9
:101570000BD469B100781061606A401C6062208DF4
:10158000401E2085608D401E6085208D0028CBD1B7
:101590002A463946204600F0A9FF0028CAD154F84F
:1015A0003D0B016841F400710160202004F81E0920
:1015B000E67766770020C6E7FFE70220C3E7000072
:1015C000020010000000FFFF00B50068134987B05B
:1015D000884221D11248016841F48001016000680D
:1015E00000F4800005900E481038016841F00201B7
:1015F00001600068694600F0020005904FF4406009
:1016000000901220019001200290032003900420FA
:1016100004900448FFF772FC07B000BD005800407A
:1016200040380240000402400248816802781144B8
:1016300081607047800000200B4810B5016841F4BC
:1016400000710160016841F480610160016841F44A
:1016500080710160032000F063F80F2000F006F8AD
:1016600000F024F8002010BD003C024070B50D4D84
:1016700004464FF47A712878B1FBF0F00A49096802
:10168000B1FBF0F000F0EEFA48B9102C07D20022BE
:101690002146501E00F024F800206C6070BD01202F
:1016A00070BD0000800000208C0000200B4882B03C
:1016B000016841F480410160006800F480400090BE
:1016C0000648001F016841F080510160006800F089
:1016D00080500090032002B000F022B8443802404D
:1016E000F0B40E4B1B680C46C3F30223C3F107058D
:1016F000042D00D90425191D072901D2002300E07B
:10170000DB1E012606FA05F1491E214099409E4044
:10171000761E16403143F0BC04F040BA0CED00E0F8
:10172000064900F0070208684FF6FF03184040EA38
:101730000220034A10430860704700000CED00E0EF
:101740000000FA052DE9F0470E46050065D0DFF8E8
:101750001481D8F80000F7B200F00700B04207D2B9
:1017600088F80070D8F8000000F00700B04254D1AB
:1017700028683D4C810712D5400703D5206840F406
:10178000E05020602878000703D5206840F46040CE
:1017900020602068A96820F0F000084320602878C5
:1017A000C0072DD0304968680839012812D00228B6
:1017B00013D0032811D00968890700292DDA216880
:1017C00021F0030101432160FFF79AFC814641F2B9
:1017D000883A0EE009688903EFE709688901ECE7B8
:1017E000FFF78EFCA0EB0901514502D90320BDE8AB
:1017F000F0872068696800F00C00B0EB810FEFD132
:10180000D8F80010404601F00701B14207D907702F
:10181000006800F00700B04201D00120E7E7287817
:10182000400705D52068E96820F4E05008432060AF
:101830002878000706D52068296920F4604040EA2E
:10184000C100206000F028F82168084AC1F30311A4
:10185000515CC8400649086006480068FFF706FF6B
:101860000020C4E7003C0240083802400B6F00082B
:101870008C000020840000200448054900680968A5
:10188000044AC1F38221515CC84070478C0000209B
:10189000083802401B6F0008154810B5006810F0AA
:1018A0000C02144813D04110042A0FD0082A0ED17C
:1018B0000F4C241F2268236802F03F025B0207D509
:1018C0002068C0F38810A0FB010106E0084610BDA7
:1018D0002168C1F38811A1FB00010023FEF72CFD54
:1018E0002168C1F30141491C4900B0FBF1F010BD72
:1018F000083802400024F4002DE9F84F04006ED0AF
:101900002078DFF84C93C007A9F104054AD009F10B
:1019100004000168C1F38101012908D00068C0F307
:10192000810002280AD1D9F80000400206D52868B3
:10193000800337D560680028E1D033E06068B0F5F7
:10194000803F10D0B0F5A02F286810D020F4803050
:101950002860286820F4802028606068A8B1FFF71C
:10196000CFFB06460DE0286840F48030F4E740F4F1
:1019700080202860F7E700BFFFF7C2FB801B6428C8
:1019800073D828688003F7D50CE0FFF7B9FB06464B
:1019900005E000BFFFF7B4FB801B6428F0D828687F
:1019A0008003F7D42078DFF8AC8280074FF0000A7C
:1019B0003ED5A748001D016811F00C0F08D0006843
:1019C000C0F3810002280BD1D9F80000400207D4EF
:1019D0002868800716D5E068012800D112E033E1BD
:1019E000E068B8B10120C8F80000FFF789FB06469F
:1019F00005E000BFFFF784FB801B0228C0D82868E1
:101A00008007F7D52868216920F0F80040EAC10076
:101A100028600DE0C8F800A0FFF772FB064604E05E
:101A2000FFF76EFB801B02281FD828688007F7D4B9
:101A30002078000722D5864F87486169703771B1D9
:101A400001210160FFF75CFB064604E0FFF758FB4D
:101A5000801B022809D838688007F7D50EE0C0F847
:101A600000A0FFF74DFB064605E082E0FFF748FBCC
:101A7000801B02287DD838688007F7D4207840077B
:101A800068D5DFF8CCB100270BF13C0BDBF8000088
:101A9000C0000BD4DBF8001041F08051CBF80010EF
:101AA000DBF80000012700F0805000906B4E30689A
:101AB000C00510D4306840F480703060FFF720FB20
:101AC000009005E0FFF71CFB0099401A022850D84F
:101AD0003068C005F6D55E4EA0686C3601280FD080
:101AE0000528306810D020F001003060306820F008
:101AF00004003060A068B8B1FFF702FB00900FE06F
:101B0000306840F00100F4E740F004003060F7E78F
:101B1000FFF7F6FA0099411A41F28830814266D8FF
:101B200030688007F4D50EE0FFF7EAFA009007E08E
:101B3000FFF7E6FA0099411A41F28830814256D8FF
:101B400030688007F4D42FB1DBF8001021F0805109
:101B5000CBF80010A069C8B33D49091D0968C1F35D
:101B6000810102294AD00228504607D0C8F86000F7
:101B700000E03CE0FFF7C4FA04463BE04746C8F803
:101B80006000FFF7BDFA064605E000BFFFF7B8FAB0
:101B9000801B02282BD828688001F7D4D4E90701DC
:101BA0000843A16A2E4A490802EB0141626A41EAF0
:101BB0008211084394F82C1040EA0161C9F8001022
:101BC00001203866FFF79CFA044606E03EE000BFBD
:101BD000FFF796FA001B022809D828688001F7D57C
:101BE00034E000BFFFF78CFA001B022802D9032063
:101BF000BDE8F88F28688001F4D427E00128F7D0E9
:101C0000D9F80000E26900F4800191421CD1226AF7
:101C100000F03F01914217D147F6C071626A01405E
:101C2000B1EB821F10D1A26A4FF0FF3300F44031B4
:101C300003EB5202B1EB024F06D194F82C1000F0E6
:101C40007060B0EB016F01D00120D1E70020CFE739
:101C50000438024000004742800E474200700040B6
:101C60000000FFFF10B5401EB0F1807F01D30120BE
:101C700010BD4FF0E02460610F21601703F08EFF6C
:101C80000020A06107202061002010BD70B590F8F1
:101C90003C20012A32D0012480F83C40022280F806
:101CA0003D2003685A689D6822F070060A68324336
:101CB0005A60134B02689A4214D0B2F1804F11D08F
:101CC000104B9A420ED0104B9A420BD00F4B9A42B7
:101CD00008D00F4B9A4205D00E4B9A4202D00E4BC1
:101CE0009A4204D1496825F080031943916080F835
:101CF0003D40002180F83C10084670BD022070BDB8
:101D0000000001400004004000080040000C0040BA
:101D100000040140004001400018004010B50400DC
:101D200003D094F83D0010B107E0012010BD002061
:101D300084F83C00204600F01FF8022084F83D00A3
:101D4000211D206803F086FD012084F8460084F8F8
:101D50003E0084F83F0084F8400084F8410084F895
:101D6000420084F8430084F8440084F8450084F875
:101D70003D00002010BD000008B50068B0F1804FA4
:101D800008D10548016841F001010160006800F0D8
:101D90000100009008BD00004038024070B50446C4
:101DA00090F83C000025012817D0012684F83C60FB
:101DB000022084F83D002068826822F0770222F435
:101DC0007F4282600868502838D00DDC20284FD030
:101DD00005DC90B3102811D14AE0022070BD3028F4
:101DE00046D040280AD13BE060282FD070280DD083
:101DF000B0F5805F03D0B0F5005F12D0012584F804
:101E00003D60002084F83C00284670BDCB68D1E9D5
:101E10000121206803F093FD2068816841F077017B
:101E200009E0CB68D1E90121206803F088FD206832
:101E3000816841F480418160E1E719E0CA6849683E
:101E4000206803F057FE5021206806E0CA68496800
:101E5000206803F06FFE6021206803F07AFDCEE772
:101E6000CA684968206803F045FE40212068F4E70D
:101E7000226801461046F0E72DE9F0410D460400C6
:101E800003D094F83D0018B108E00120BDE8F081CE
:101E9000002084F83C00204600F040F8022084F83E
:101EA0003D002068816844F2070291438160211D52
:101EB000206803F0CFFC226890689169166A2B684D
:101EC000AF69034340F20330814341EA0721A86828
:101ED000EF6908434FF6FC418843E96840EA072070
:101EE000014328692F6A000140EA07300843696806
:101EF0006D6926F0AA0646EA051529439360226813
:101F0000906154F8460B0162012004F81F09E07546
:101F10002076E0762077A0750020B7E7F0B587B08F
:101F2000044614216846FEF709FC26683E483D4CED
:101F300000213D4D143802220123A64218D12C68FD
:101F400044F001042C602C6804F00104059404683A
:101F500044F010040460006800F0100005904FF495
:101F600020608DE80D00CDE9031369462F481DE080
:101F70002D4CDFF8BCC0241FC02766451AD1256848
:101F800045F002052560246804F002040594046805
:101F900044F0010404600068009700F0010005901F
:101FA000CDE90123CDE9031269462248FEF7A6FFD9
:101FB00007B0F0BDDFF880C0664517D1256845F051
:101FC00004052560246804F004040594046844F0C2
:101FD000020404600068009700F002000590CDE95B
:101FE0000123CDE9031269461448DFE7144CA642E9
:101FF000DED12C6844F002042C602C6804F002044A
:102000000594046844F0040404600068009700F03C
:10201000040005900320CDE9031069460948CDE985
:102020000123C3E700000140443802400010024091
:10203000000400400000024000080040000402408C
:10204000000401400008024070B590F83E6004466C
:1020500090F83F5090F8423090F84320022021B190
:1020600004290ED0012E1BD114E0012E18D1012B12
:1020700016D184F83E0084F8420001220021206835
:1020800020E0012D0CD1012A0AD184F83F0084F808
:10209000430014E0012D03D1012B01D1012A01D00D
:1020A000012070BD84F83E0084F83F0084F84200AF
:1020B00084F8430001220021206803F033FC012250
:1020C0000421206803F02EFC2068016841F0010122
:1020D0000160002070BD000010B586B004461421D8
:1020E0006846FEF72BFB2068B0F1804F15D10C48F5
:1020F0000021026842F001020260006800F0010065
:1021000005900F2000900220CDE901010120CDE9CA
:10211000031069460348FEF7F1FE06B010BD00004B
:10212000303802400000024070B5044690F83C0090
:1021300000260D4601280FD0012084F83C006AB12A
:10214000042A1DD0082A2FD00C2A3FD001260020B7
:1021500084F83C00304670BD022070BD206803F05A
:1021600001FC2068816941F0080181612068816972
:1021700021F004018161206881692A69114311E01D
:10218000206803F021FC2068816941F400618161CD
:102190002068816921F480618161206881692A69F0
:1021A00041EA02218161D2E7206803F045FC206802
:1021B000C16941F00801C1612068C16921F00401D1
:1021C000C1612068C1692A69114311E0206803F0E8
:1021D00069FC2068C16941F40061C1612068C1697E
:1021E00021F48061C1612068C1692A6941EA022144
:1021F000C161ACE710B5040003D094F83D0010B104
:1022000007E0012010BD002084F83C00204600F0CB
:102210001EF8022084F83D00211D206803F01AFBFF
:10222000012084F8460084F83E0084F83F0084F8DA
:10223000400084F8410084F8420084F8430084F8A8
:10224000440084F8450084F83D00002010BD70472C
:1022500010B50446022249B104290ED0082913D032
:1022600094F84100012816D0012010BD94F83E00DA
:102270000128F9D184F83E200FE094F83F000128AE
:10228000F2D184F83F2008E094F840000128EBD117
:1022900084F8402001E084F841200122206803F006
:1022A00041FB16492068164A884201D0904203D16A
:1022B000436C43F4004343642068884213D0B0F178
:1022C000804F10D00F4988420DD00F4988420AD064
:1022D0000E49884207D0904205D00D49884202D06D
:1022E0000C49884204D1816801F00701062903D016
:1022F000016841F001010160002010BD00000140B3
:10230000000401400004004000080040000C0040B0
:102310000040014000180040FEE701684A69D243CE
:1023200052050FD46FF480624A61002140F8301FDB
:10233000202242738173026942F004020261017338
:1023400001207047002070472DE9F84F04460068CF
:1023500089460B9D01689846174641F480610160EB
:102360002068016841F48071016000954FF0011B05
:102370000022594620460A9B00F0E4F84FF4007A08
:1023800040B120680068C00501D5C4F840A0032012
:10239000BDE8F88F216809F0FE0008612B46284946
:1023A00020460A9A00F016F9F0BB2068416980695E
:1023B00000902A4620460A9900F0A2F940B1206C0C
:1023C00004283AD12068016841F40071016034E0CA
:1023D000FEB2B8F1010F09D02168380A08612A4617
:1023E00020460A9900F08CF90028E8D1206806619F
:1023F0002A4620460A9900F083F90028DFD1206898
:10240000016841F480710160009500225946204620
:102410000A9B00F097F80028B3D1216809F0FF006B
:1024200040F00100086100E007E02B460449204627
:102430000A9A00F0CFF80028AAD00120A8E70000EF
:10244000020001002DE9F843044600680D46DDE96D
:10245000089701689846164641F4807101604B4622
:1024600000224FF001112046009700F06BF848B1B0
:1024700020680068C00502D54FF400702064032076
:10248000BDE8F883216805F0FE0008613B464A4636
:102490001549204600F09EF888B920684169806996
:1024A00000903A464946204600F02AF948B1206C8F
:1024B000042804D12068016841F400710160012002
:1024C000DEE7F5B2B8F1010F09D02168300A0861E2
:1024D0003A464946204600F013F90028E7D1206823
:1024E00005610020CCE700000200010070B516462F
:1024F0000D4604461EE02046FFF70FFF08B10120FD
:1025000070BD681C16D0FEF7FBFD801BA84200D8EA
:1025100085B920684069C04340070BD5002044F8C6
:10252000300F20216173A073216941F020012161E6
:102530002073E4E720684069C0434007DBD40020F3
:1025400070BD00002DE9F047984617460D46044639
:10255000C1F30746DDF820902AE000BFB8F1FF3F45
:1025600026D0FEF7CDFDA0EB0901414502D8B8F118
:10257000000F1DD12068012E16D0806925EA0000C9
:102580000004000C12D00020B84211D1002044F801
:10259000300F20216173A073216941F02001216176
:1025A00020730120BDE8F0874069E7E70120EBE7F1
:1025B0002068012E0AD0806925EA00000004000C82
:1025C00006D00020B842C9D00020EBE74069F3E70D
:1025D0000120F7E72DE9F047984616460D460446D8
:1025E0004FF000094FF0200AC1F3074723E02068AD
:1025F0004069C043400515D42068016841F400716A
:10260000016021686FF480604861C4F8309084F8FC
:102610003DA084F83E90216C41F00401216484F8CF
:102620003C9021E0701C06D0FEF76AFDA0EB08008C
:10263000B04203D816B1012F1FD021E02068012F2E
:1026400015D0806925EA00000004000C18D000BFF6
:1026500044F8309F84F80DA084F80E90216941F071
:102660002001216184F80C900120BDE8F0874069C9
:1026700025EA00000004000CEAD12068406901E06E
:102680002068806925EA00000004000CAFD1ECE767
:102690002DE9F041002590460E460446202728E00B
:1026A0004069C043C0060CD454F8301B6FF01000D2
:1026B000486144F810596777A577206A206225772A
:1026C00014E0FEF71DFDA0EB0800B04200D886B96B
:1026D00020684069C04340060BD544F8305F6773FB
:1026E000A573206940F02000206125730120BDE81A
:1026F000F08120684169C9434906D1D40020F6E73A
:1027000070B516460D4604461EE02046FFF705FE4E
:1027100008B1012070BD681C16D0FEF7F1FC801BCB
:10272000A84200D885B920684069C04300060BD58F
:10273000002044F8300F20216173A073216941F01B
:10274000200121612073E4E720684069C04300064E
:10275000DBD4002070BDB4EEC10AF1EE10FA02DD48
:10276000B0EE410A7047B4EEE00AF1EE10FAF9D289
:10277000B0EE600A704700002DE9F0411D462DEDD6
:10278000048B16460F4604005FD094ED011A94EDB9
:10279000020AB7EE008A61EE011AF0EE008AF0EE4E
:1027A000480A40EE001A41EEE80AD4ED001A21EE84
:1027B000811AD4ED031A00EE211A21EE280A03F043
:1027C00093FAF0EE409A94ED000AD4ED020A94EDEB
:1027D000011A20EE200AD4ED030A00EEC10AB7EE7A
:1027E000001AFFEE000A20EE280AFFF7B4FF03F0FC
:1027F000E5F9B0EE409A94ED020A94ED031AF0EE7A
:10280000480A60EE001A41EE011A41EEE80AD4EDE2
:10281000001A21EE811AD4ED011A01EE801A21EE80
:10282000280A03F061FADFED0B0A1FB129EEA01AA6
:1028300087ED001A1EB129EE201A86ED001A002D30
:1028400003D020EE200A85ED000ABDEC048BBDE824
:10285000F0810000E12E654210B5040006D0202171
:10286000FDF76CFFB7EE000A84ED000A10BD000012
:1028700010B504002DED068BB0EE418AF0EE608AB3
:10288000F0EE409A56D0FFF7E7FF29EEA90A08EECE
:10289000A80A08EE080A03F0BFFC10EE100A274948
:1028A000884247DD88EE801A89EE809AC8EE000AD9
:1028B000B0EE410A03F018FAB0EE408AB7EE001A03
:1028C000FFEE000AB0EE490AFFF745FF03F076F984
:1028D000B6EE00AAF1EE409A28EE0A8AB0EE480A57
:1028E00003F02AFBF0EE408AB0EE480A03F0CCFB7E
:1028F00029EE8A8AB0EE409AB0EE480A03F01CFB3B
:10290000F0EE400AB0EE480AF0EE609A03F0BCFB2D
:10291000B0EE401A28EEA90A84ED000A29EE290A31
:1029200084ED010A28EE810A84ED020A29EE410AAB
:1029300084ED030ABDEC068B10BD000017B7D1383B
:1029400070B504002DED0C8BB0EE43AAF0EE419A69
:10295000F0EE60AAB0EE40CA7ED0B5EEC0AAF1EEAD
:1029600010FA79D99FEDB49A002904D0F1EE008ACB
:102970009FEDB28A04E0DFEDB28A00BFB0EE498A73
:102980009FEDB00A61EE80BA22EE00BA62EE80CA14
:1029900094ED070A1BD07CEEC00AAB49B0EEE01AFA
:1029A00011EE100A884202DD9FEDA81A01E09FEDAA
:1029B000A81A61EE200A00EE8A0A84ED070A9FED4C
:1029C000A51ADFEDA50AFFF7C6FE84ED070A7CEE27
:1029D000C0CA2CEE0C0A0AEEAA0A09EEA90A03F0F4
:1029E0001BFC10EE100A9D4DA84235DDC9EE802A71
:1029F000D4ED010AD4ED031AD4ED023AB5EEC08A43
:102A000020EEA11A8AEE802AF6EE00AA8CEE003A99
:102A100094ED000AB0EE6ACA10EE00CA00EE631A26
:102A200060EE200A01EEA1CA43EEA10A62EE819A8D
:102A300022EE0CDA43EE4C9A23EE20CA02EEE0DAE4
:102A400002EE41CAF1EE10FA44DD68EE0D0A94ED93
:102A5000040A00EE8A0A00E0EAE084ED040A28EEA7
:102A6000291AD4ED050A41EE0A0A28EE0C1AC4ED23
:102A7000050AD4ED060A41EE0A0AC4ED060A9FEDE6
:102A8000788AB0EE481A9FED779AF0EE490AFFF780
:102A900062FE84ED040A94ED050AB0EE481AF0EEE9
:102AA000490AFFF758FE84ED050A94ED060AB0EED8
:102AB000481AF0EE490AFFF74EFE84ED060AD4EDFF
:102AC000040A70EE2CCA70EEABBAD4ED050A30EEF3
:102AD0008BBA05E084ED049A84ED059A84ED069A9C
:102AE00048EE8DBA08EEA9BA48EE8CCA94ED019A68
:102AF000D4ED009AD4ED028A2BEEAACA2BEE2ABAA4
:102B00006CEEAABA94ED038A69EE4C0A29EE8C0A9F
:102B100029EE8B2A2AEE2A1A48EECB0A08EEAB0AD7
:102B200009EE6B2AF0EE69AA69EEAB1A48EE6B0A61
:102B300008EE4B0A08EE0C2A49EE0B1A40EE81AA69
:102B4000F0EE490A40EE010AB0EE680A48EECC1AEF
:102B500002EE010AF0EE60CAF0EE480AB0EE40DA8A
:102B60002AEEAA0A41EE810A0CEEAC0AF0EE60DA17
:102B70000DEE0D0A0DEEAD0A03F04EFB10EE100A3D
:102B8000A84255DDCCEE801ACAEE800A21EECC3A7E
:102B90008DEE001A60EE8C2A8DEE802A20EE8B0AD4
:102BA00060EEAB0A01EE4B3A41EE2B2A01EEEB0A46
:102BB00041EE8B0A41EE4C0A02EE6B3A42EE4B2A92
:102BC00002EE0C0A00EE8A8A43EE0A9A02EE8A9A14
:102BD00040EE0A8AC4ED009A29EEA90A84ED019A12
:102BE000C4ED028A84ED038A09EE090A08EEA80AF8
:102BF00008EE080A03F010FB10EE100AA84217DDD9
:102C0000D4ED000A80EE801A84ED001AD4ED010A9A
:102C100080EE801A84ED011AD4ED020A80EE801A4B
:102C200084ED021AD4ED030A80EE801A84ED031AB3
:102C3000BDEC0C8B70BD0000000000006F12033B68
:102C40000AD7233C35FA8E3C0AD7A33B0AD7A33CCC
:102C50008FC2753CCDCCCC3DCDCCCCBD17B7D138D7
:102C6000CDCC4C3DCDCC4CBDB5EEC00AF1EE10FA4A
:102C700001DAB1EE400A704710B504462DED028B23
:102C8000F0EE408A90ED000A80ED010A90ED020A14
:102C9000D0ED050A30EE200A80ED030AD0ED060AD9
:102CA00030EE208AB0EE480AFFF7DEFF10EE100A81
:102CB00039499FED3A0A884202DA84ED040A05E0B8
:102CC000D4ED030A80EE881A84ED041AD4ED010ACB
:102CD00078EEE00AC4ED070A94F84C0004EB80009B
:102CE000C0ED090A94F84C00DFED2D0A401CC0B27B
:102CF00084F84C000A2806D3002084F84C000120F8
:102D000084F84D0002E094F84D0030B384ED080AD9
:102D10005FF0000004EB800194ED081A91ED090AC0
:102D2000401CC0B200EE001A0A2884ED081AF1D344
:102D3000F2EE041A1B4981EE210A84ED080A94ED93
:102D4000041A21EE011A21EE000A10EE100A84ED99
:102D5000050A884201DAC4ED050A94ED010A94EDF2
:102D6000041AD4ED071A01EE210AF7EE001A31EE2B
:102D7000C11A84ED000AD4ED031A21EE211A84ED64
:102D8000021AB5EEC01AF1EE10FA01D2C4ED020A31
:102D9000BDEC028B10BD0000FFE6DB2E0000000042
:102DA00077CC2B3277CC2B3210B504002DED048B71
:102DB000B0EE608AF0EE408A1DD05C21FDF7BEFCCB
:102DC000C4ED148ADFED0D9AF7EE008A9FED0C9AA0
:102DD00050212046FDF7B2FC18EE100AC4ED009A0F
:102DE0000849C4ED028A84ED059A884201DC9FED12
:102DF000068A84ED068ABDEC048B10BD000000003D
:102E0000ACC52737BD378635BD37863570B50D461D
:102E10002DED028B040044D0D4ED140A30EE600A8C
:102E2000FFF72AFFB0EE408A00269DB394ED150A05
:102E300038EE400AFFF718FF10EE100A1A498842D0
:102E400014DAB0EE480AFFF70FFF10EE100AB0F1E7
:102E5000804F0BDAB4F85800642803D2401CA4F861
:102E6000580005E0012084F85A0008E0A4F85860F2
:102E700094F85A0018B9B4F8580064280DD394EDAA
:102E8000140ADFED0A0A08EE200A9FED098A84ED94
:102E9000140A02E0FFE7A4F8586084ED158AB0EE4A
:102EA000480ABDEC028B70BD0AD7233C6F12033B6E
:102EB0000000000070B5394C05002DED028BDFEDF0
:102EC000368A11D0FEF71CF900F596706063002079
:102ED000A070C4ED0C8A94ED020A84ED0B0AE07038
:102EE0002846BDEC028B70BD20790028F9D0A0786F
:102EF00068B394ED0B0AD4ED020A294930EE608ADA
:102F00009FED280A18EE100A884201DD38EE408A4B
:102F1000254918EE100A884201D938EE008A18EEC9
:102F2000100AB0F13F4F06D218EE100AB0F17C5FE4
:102F300001DAB0EE688AB2EE000A1C4928EE000AF7
:102F400010EE100A88420CDD9FED190A10E094ED96
:102F5000020A012084ED0B0AA070C4ED0C8A002047
:102F6000BFE710EE100A1349884201D99FED120AFB
:102F7000DFED120A9FED121A20EE200AD4ED0C0AA2
:102F800000EE810A84ED0C0AB1EE400ABDEEC00AE3
:102F900010EE100A00B2A4E7000000003C00002080
:102FA000000034430000B443000034C30000344246
:102FB00000003442000034C2000034C26666E63EBF
:102FC000CDCC0C3F014890ED020A70473C00002038
:102FD0002DE9F04FCC48CB494FF480422DED088BC2
:102FE0009FB00160C949C0E901120021C0E9031284
:102FF00041618161C1610162FEF788F808B1FDF7A6
:103000005BFF01221AA9752000F0D2FA18B99DF8C9
:103010006800682801D0FDF74FFF01216B2000F008
:10302000D5FA08B1FDF748FF6420FDF747FF0021FE
:103030001B2000F0CBFA08B1FDF73EFF00211C2059
:1030400000F0C4FA08B1FDF737FF04211A2000F0A0
:10305000BDFA08B1FDF730FF0021192000F0B6FAE3
:1030600008B1FDF729FF0020CDE90C00CDE90A00E9
:10307000CDE90800CDE906000F90CDE90400CDE9C7
:1030800002008346064681460446054607460E2250
:1030900015A93B2000F08CFAE8BBBDF8540040BAFB
:1030A00003B2BDF856004FEAE37840BA0FFA80FE4B
:1030B000BDF8580040BA02B20092DDE906C2BDF880
:1030C0005C001CEB030340BA42EB080201B2CDE9FD
:1030D0000632BDF85E00DDE904C340BA0FFA80FA9B
:1030E000BDF860001CEB0E0243EBEE73CDE9042348
:1030F000009ADDE902C34FEAE2781CEB020243EBDF
:103100000803CDE90223DDE90C3240BA5B1800B2B6
:1031100042EBE17200E01CE0CDE90C32DDE90AC3CC
:103120001CEB0A0243EBEA73CDE90A23DDE908321E
:103130001B1842EBE072CDE908320F9A5B46C1FBE7
:1031400081329B464946CAFB8A618946C0FB80455D
:103150000F924FF00200FDF7B1FE7F1CB7F57A7FAA
:1031600095D3DDE90C0103F034FE00EE100ADFED2B
:10317000688AC0EE280A9FED678A674F019080EE4B
:1031800088BA87ED07BADDE90A0103F022FE82461C
:1031900000EE10AAC0EE280A80EE880A87ED080A21
:1031A000DDE9080103F015FE804600EE108AC0EE4E
:1031B000280A80EE880A87ED090ADDE9060103F096
:1031C00008FE00EE100AC0EE280A9FED54AA20EE79
:1031D0008A0A87ED050ADDE9040103F0FAFD00EE35
:1031E000100AC0EE280A20EE8A0A87ED060A019826
:1031F0000F9900EE100A584680EE289A00EE10AAA9
:10320000C0EE28AA00EE108A80EE288A03F0E1FDC5
:1032100000EE100A30464946C0EE289A49EE499A17
:1032200003F0D7FD00EE100A2046294680EE289ACA
:103230000AEEEA9A03F0CDFD00EE100AF5EEC09A10
:1032400080EE281A08EE481A9FED358AF1EE10FA42
:1032500001D2F0EE489AB5EEC09AF1EE10FA01D222
:10326000B0EE489AB5EEC01AF1EE10FA01D2B0EE07
:10327000481ADFED2C1AB0EE4B0A2B48C9EEA10A12
:10328000C9EE219A81EE219AFFF78EFD2648F0EED5
:10329000690A97ED080A5C30FFF786FD1A48F0EEE0
:1032A000490A97ED090A7C38FFF77EFDDDE9020146
:1032B00003F08FFD00EE100A1348C0EE280AB0EEAE
:1032C000480A203820EE8A1AF0EE480AFFF7D0FAB2
:1032D00087ED028A87ED038A87ED048A87ED0B8AE2
:1032E0000020B87087ED0C8A3871F870012478637B
:1032F0003C70FDF705FFB8627C701FB0BDEC088B19
:10330000BDE8F08F00580040A8030020801A060096
:1033100000007A44000003433C0000200000803895
:103320000000000000128646740200209FED0C0A87
:103330000C4950B1CA7882B9D1ED020A0122C1ED1F
:103340000B0A8A7081ED0C0A07E000228A7081ED79
:103350000C0A91ED020A81ED0B0A0871C8707047E2
:10336000000000003C00002070B5834C2DED088B60
:1033700084B0607800287DD00E2269463B2000F0A2
:1033800017F9002876D1BDF80000BDF80C3040BA1E
:1033900006B2BDF8020000EE106A40BA05B2BDF8F0
:1033A0000400F8EEC00A40BA02B2BDF808005BBAE9
:1033B00040BA01B2BDF80A0094ED05BA40BA00B2B5
:1033C0001BB29FED6E0AD4ED06AA10EE80BA00EE95
:1033D000905AF8EEE00A50EE80AA00EE902AF8EE3D
:1033E000E00A60EE80BA00EE101AF8EEC00A9FED17
:1033F000640A80EE808A00EE900AF8EEE00AC0EEE1
:10340000808A00EE903AF8EEE00A80EE80AAFDF79E
:1034100077FEA16A411A00EE101AB8EE400ADFEDFD
:10342000590A594BC0EE209A19EE901A9FED570A8F
:10343000574AA062994203DC19EE901A914201DAD0
:10344000F0EE409A217921B9616B401A01D401252F
:1034500000E000252946B0EE480A4E48FFF7D6FCAA
:103460004C48B0EE409A2946B0EE680A5C30FFF74F
:10347000CDFC00E07BE04748B0EE408A2946B0EE44
:103480004A0AB830FFF7C2FCF0EE408AF5B329EEE5
:10349000090A08EE080A08EEA80A02F0BDFE207824
:1034A00010B1F0EE040A01E0F7EE080AB4EEE00A0B
:1034B000F1EE10FA01D2012000E00020207028B3C4
:1034C0000126B0EE490AFDF732FA10EE100A324D2D
:1034D0009FED32AAA84201DAB0EE4A9AB0EE480A4D
:1034E000FDF725FA10EE100AA84201DAB0EE4A8A7A
:1034F000B0EE680AFDF71BFA10EE100AA84201DAD6
:10350000F0EE4A8AB0EE693A314600E01CE0F0EE97
:10351000682AB0EE482AF0EE491AB0EE6B1AF0EEC7
:103520006A0AB0EE4B0A1E48FFF70AFA124B1C4813
:10353000083303F10802111FFFF71EF994ED020A88
:10354000DFED180A184903E00026DBE730EE600AD9
:1035500010EE100A8842F9DC144900BF10EE100A80
:10356000884202D930EE200AF8E784ED020A04B05E
:10357000BDEC088B70BD00003C00002000008038CE
:103580000000034300007A44CDCCCC3D0AD7A33BD6
:103590006F12833A740200209A99993F000000004C
:1035A000880300200000B44300003443000034C30B
:1035B0000EB50A238DE80E0002460123D0210248F1
:1035C000FDF768FE0EBD0000A803002003B583B020
:1035D0000A23012204A98DE80E0013460246D021D9
:1035E0000248FDF759FF05B000BD0000A803002008
:1035F0002DE9F04786B014216846FDF79FF833485F
:103600000024016841F010010160016801F010011F
:103610000591016841F008010160016801F00801AD
:103620000591016841F004010160016801F00401A5
:103630000591016841F001010160016801F001019B
:103640000591016841F0020101600068DFF88080A7
:1036500000F00200059000224FF440614046FDF763
:103660004AFDDFF870A04FF4704600223146504604
:10367000FDF741FD012251024046FDF73CFDDFF818
:1036800058904FF44057002239464846FDF733FD25
:103690004FF4606000900125CDE901546946404631
:1036A0000394FDF72BFC0097CDE901546946484689
:1036B0000394FDF723FC0096CDE90154694650467A
:1036C0000394FDF71BFC06B0BDE8F08730380240DC
:1036D000000C0240001002400004024010B58CB003
:1036E00024216846FDF72AF8002416480994144955
:1036F0000A94C0E900144FF6FF71C0E90241046169
:10370000446184610320CDE900040120CDE9020475
:103710000494CDE90540079469460A480894FEF7E9
:10372000ABFB08B172B6FEE7099409A905480A94F3
:10373000FEF7ACFA002801D072B6FEE70CB010BD5F
:1037400000000140EC00002010B58EB0002407946A
:10375000089409940A940B941C2168460C94FCF775
:10376000EDFF29484FF08041C0E900144FF6FF718A
:10377000C0E9024104618461FEF7D0FA08B172B673
:10378000FEE74FF48050079007A91F48FEF706FB9D
:1037900008B172B6FEE71C48FEF72CFD08B172B600
:1037A000FEE70B940BA918480C94FEF76FFA08B1CA
:1037B00072B6FEE76020CDE900040294002269465B
:1037C00011480494FEF7B0FC08B172B6FEE704227B
:1037D00069460D48FEF7A8FC08B172B6FEE708225C
:1037E00069460948FEF7A0FC08B172B6FEE70C2254
:1037F00069460548FEF798FC08B172B6FEE7024834
:10380000FEF76AFC0EB010BD3401002010B58CB07C
:1038100024216846FCF792FF0024164809941449B5
:103820000A94C0E900144FF6FF71C0E90241046137
:1038300084610320CDE900040120CDE90204049451
:10384000CDE90540079469460A480894FEF714FB41
:1038500008B172B6FEE7099409A906480A94FEF772
:1038600015FA002801D072B6FEE70CB010BD0000BA
:10387000000400407C01002010B58CB02421684673
:10388000FCF75CFF00241648099414490A94C0E927
:1038900000144FF6FF71C0E9024104618461032006
:1038A000CDE900040120CDE902040494CDE90540EE
:1038B000079469460A480894FEF7DEFA08B172B622
:1038C000FEE7099409A906480A94FEF7DFF90028E3
:1038D00001D072B6FEE70CB010BD00000008004039
:1038E000C401002010B58CB024216846FCF726FFE7
:1038F00000241648099414490A94C0E900144FF6AC
:10390000FF71C0E902410461446184610320CDE993
:1039100000040120CDE902040494CDE90540079498
:1039200069460A480894FEF7A7FA08B172B6FEE79E
:10393000099409A905480A94FEF7A8F9002801D0BE
:1039400072B6FEE70CB010BD000401400C0200206E
:10395000FEE7000070B504282BD2214A00EB40009E
:1039600002EBC004206894F91650C0684D43A84289
:1039700002DB4042A84200DD0546002D02DA00BF0E
:10398000C5F1000516DDA1894FF00102D4F8080049
:10399000FDF7B1FBA18A0022D4F81000FDF7ABFBC4
:1039A000606890B1042814D008282068006814D0FA
:1039B000056470BDA189A0684FF00002E8DAFDF748
:1039C0009AFBA18A01222069E8E720680068456324
:1039D00070BD20680068856370BDC56370BD000060
:1039E000386E000810B500210F48FEF731FC08B111
:1039F000FDF762FA04210C48FEF72AFC08B1FDF736
:103A00005BFA08210848FEF723FC08B1FDF754FAD9
:103A10000C210548FEF71CFC002803D0BDE810402F
:103A2000FDF74ABA10BD00003401002010B5002493
:103A300000212046FFF78EFF641CE4B2042CF7D36C
:103A400010BDFEE7B5EEC00AF1EE10FA01DAB1EEF4
:103A5000400A7047B4EEE00AF1EE10FA02D2B0EE7E
:103A6000600A7047B4EEC10AF1EE10FAF9DDB0EE6B
:103A7000410A704770B5204C06462DED048B002599
:103A8000F3EE089A9FED1B8AD4ED128A00EE105ACD
:103A9000201DB8EE400A80EE299AB0EE490A01F0E6
:103AA00021FA96EC021A30EE411A30EEE10A61EE8C
:103AB000010A40EE000AB0EE600A00F009F9B4EE27
:103AC000C80AF1EE10FA05D2B0EE408A94ED100A61
:103AD00060EE098A6D1CEDB2182DD7D994ED120A4B
:103AE000B4EEE80AF1EE10FA01DCB0EE680ABDECC3
:103AF000048B70BD286B6E4E1808002010B530EE98
:103B0000600A2DED028B00F0EFF8B0EE408AFFF76F
:103B100099FF10EE100AB0F1804F04DCBDEC028B6F
:103B20009FED080A10BD9FED080A9FED081ADFED12
:103B3000080A28EE000ABDEC028BBDE81040FFF732
:103B400089BF0000000000000AD7233C295C8F3E9B
:103B5000295C8FBE10B52DED028BB0EE418AF0EEE0
:103B6000608AFFF76FFF10EE100A0D4CA04210DCC8
:103B7000B0EE680AFFF766FF10EE100AA04208DCFC
:103B8000B0EE480AFFF75EFF10EE100A05498842C2
:103B900003DD0120BDEC028B10BD0020FAE7000020
:103BA0000AD7233C8FC2F53C10B504462DED088B97
:103BB000F0EE409AF0EE608AB0EE418A90ED020A93
:103BC0009FED399ADFED39AA60EE090A80EEAA0A64
:103BD00002F0B2F9B0EE401A94ED020AB0EE41AA3A
:103BE00060EE090A80EEAA0A02F04EFAB0EE401A20
:103BF000DFED2FAA9FED2FBADFED2FBAB0EE419A7D
:103C000029EEAA0AB0EE4B1AF0EE6B0AFFF722FF7C
:103C1000F0EE409A28EEAA0AB0EE4B1AF0EE6B0ACC
:103C2000FFF718FFF0EE400A69EE8A8A20EE8AAAB2
:103C3000224840EE898A09EEC9AAD4ED020A90ED25
:103C4000130AFFF75BFF18EE100A1D49DFED1D0A8E
:103C5000B0EE409A884202DCB0EE608A0DE09FED43
:103C60001A0ADFED1A1A38EE401A81EE210AB7EE71
:103C7000001AFFF7EFFE29EE008AF0EE4A0AB0EED6
:103C8000680AB0EE481AFFF765FFFFF74FFBB0EE8A
:103C9000481AF0EE4A0AB0EE680ABDEC088BBDE89F
:103CA0001040FCF7DBBF0000DB0F4940000034434D
:103CB0006F12833B3333B33E3333B3BE1808002057
:103CC0000000A042000000000000A04200005C4391
:103CD000B5EEC00AF1EE10FA02D89FED020A704765
:103CE00002F09ABA00000000DFED090A094901E07C
:103CF00030EE600A10EE100A8842F9DC064900BF77
:103D000010EE100A884202D930EE200AF8E7704718
:103D10000000B44300003443000034C310B500F089
:103D20007FFD124C00209FED120A2070607084ED20
:103D30000C0A84ED0D0A84ED0E0A84ED0F0A84ED61
:103D4000100A84ED110A84ED120A84ED130AF7EECD
:103D5000000AC4ED140A84ED150A84ED160AC4EDB8
:103D6000170AFDF7CDF9206610BD000018080020E5
:103D7000000000000148007870470000180800208B
:103D800010B52DED068BF0EE41AAF0EE608AF0EE54
:103D9000409A00F063FD00F037FDB0EE41AA364CCA
:103DA000B0EE408AB0EE609AF0EE6A2AB0EE4A2A8F
:103DB000F0EE681AB0EE691A201D00F0ABFF84ED3A
:103DC0000C8A84ED0D9AC4ED0E9AC4ED0F8A201D65
:103DD00001F050F884ED100A79EEC89A9FED270A99
:103DE00038EEC98A84ED120A29EEA90A84ED13AAD5
:103DF00008EE080AFFF76CFF10EE100A84ED110AB6
:103E0000B0F17E5F03DAB7EE000A84ED110AB0EE7E
:103E1000401A89EE810AC8EE010A84ED140AC4ED45
:103E2000150AF1EE600AC4ED160A84ED170AF0EEE9
:103E3000690AB0EE480A01F057FFDFED110A9FED65
:103E4000111A60EE200A80EE810A30EE4A0AFFF76E
:103E50004BFFFFF7F7FD10EE100A0B49884201DD1A
:103E6000012000E000206070FDF74AF92066012083
:103E70002070BDEC068B10BD18080020000000006B
:103E800000003443DB0F494000004041024900205C
:103E9000087001F001BA00001808002010B5CD4CE0
:103EA0002DED0E8B98B0207800285BD0FFF75CFAE0
:103EB00000F0D4FCFDF724F9216E411A00EE101A2F
:103EC000B8EE400ADFEDC40A2066C0EE20AAF5EE87
:103ED000C0AAF1EE10FA04D91AEE900ABF4988423E
:103EE00001DDDFEDBFAA00F08FFC8DEC030A94ED3D
:103EF0000E1A31EE40DA94ED0F0A30EE60AA2DEE84
:103F00000D0A0AEE0A0AFFF7E3FE6078B0EE408A77
:103F1000DFEDB48A18B16846FFF7ACFD19E09DEDFE
:103F2000000AD4ED0C0A94ED0D1A30EE600ADDEDB6
:103F3000010A70EEC10A94ED141A21EE000A94ED04
:103F4000151A00EE810A94ED111AF0EE680AFFF7D7
:103F500081FD18EE100AA44984ED120A884205DC9E
:103F6000FFF794FF18B0BDEC0E8B10BD18EE100AD1
:103F70009E49884206DDD4ED110AB4EEE00AF1EE66
:103F800010FA09DBB0EE481AF0EE4A0AB0EE4D0A1C
:103F90006846FFF709FEE5E7211D0AA800F0BAFF11
:103FA0001C220AA903A8FCF76DFBDDED070A9FEDB3
:103FB000901A80EE810AB7EE001AF0EE680AFFF759
:103FC00049FD10EE100A8B49F0EE409A884201DA62
:103FD000DFED899A60789FED890A9FED89BADFED60
:103FE00089BAE0B3D4ED120A30EE800AD4ED100A9B
:103FF000F4EEC00AF1EE10FA01D2B0EE600A211D13
:1040000011A800F087FF1C2211A90AA8FCF73AFBAF
:10401000DDE90A01CDE9030100EE100ADDED000A39
:1040200070EE60EA00EE101ADDED010A30EE60EA93
:10403000DDED050A9DED060A01F056FE20EE0B0AA5
:1040400080EE2BCA2CEE2B0A80EE0B8AB0EE480ACB
:1040500001F072FFF0EE408AB0EE480A00E014E092
:1040600002F012F8B0EE409AB0EE688A29EE6E1AAD
:104070006EEE88DA69EE4D0AF1EE49CA0EEE081AC4
:104080004EEE09DA4AEE080A2EE094ED121AD4ED4B
:10409000110A31EE000AF4EEC00AF1EE10FA01D274
:1040A000B0EE600AD4ED0C0A70EE41DA9DED000A24
:1040B000D4ED16CA94ED0D1A30EE600ADDED010A5A
:1040C00094ED178AD4ED148A70EEC10A20EE2C0A02
:1040D00094ED159A94ED13CA00EE880A6DEE2C0A41
:1040E0004AEE080AB1EE401A9FED470A21EE000A97
:1040F0009FED46AA00EE8A0A9FED451ADFED450ABC
:10410000FFF7A8FC2DEE8ADAB0EE40EADFED42DAE6
:10411000B0EE6D1ADFED41EAB0EE4D0AF0EE6E0A38
:10412000FFF798FC20EE28AAB0EE4D0AB0EE6D1A0B
:10413000F0EE6E0A08EEA9AA0CEE8EAAFFF78AFC32
:1041400060EE098A9DED020A60EE2B0A49EE298A8B
:1041500080EE8B0A48EE0E8A01F0EEFEF0EE400A89
:104160009DED020AB0EE609A60EE2B0A80EE8B0A9B
:1041700001F08AFF2AEE098ADDED020A08EE808A44
:1041800068EE898A4AEE408AB0EE4C0AFFF7B6FC28
:10419000B0EE409AF0EE680AB0EE491AB0EE480A66
:1041A000FFF7D8FCFFF7C2F8B0EE491AF0EE680A44
:1041B000B0EE480AFCF752FDDDED070A94ED120A55
:1041C000B5EE001A60EEAA0A00EE810A84ED120A2A
:1041D000C8E600001808002000007A44CDCC4C3E10
:1041E0000AD7A33B000000000000C841000096432E
:1041F0000000D243ABAA2A3EABAA2A3E0000C84226
:1042000000003443DB0F4940BC74133C6F12033B86
:104210003333B33E3333B3BECDCCCC3DCDCCCCBDAC
:10422000FFF73CFE052002F069FBF9E700EE100AFB
:1042300010B59FED161ADFED160AB8EEC00AFCF7AE
:104240009DFD10EE100AB0F1414F07D210EE100A9A
:10425000B0F1824F02DA9FED0F0A10BDDFED0E0ABA
:10426000B5EEC00AB2EE001AF1EE10FA02DD30EE41
:10427000411A01E030EE011ABDE8104081EE200A3B
:10428000B7EE001AFFEE000AFCF778BD0000C84246
:104290000000C8C2000000000000B8420122110264
:1042A0000148FCF728BF00000000024000224FF444
:1042B00080710148FCF71FBF00000240012211027B
:1042C0000148FCF718BF00000004024000224FF430
:1042D00080710148FCF70FBF0004024070210720E5
:1042E00000F0DAB910B50446FFF7F0FF204600F001
:1042F0007FF903494870BDE81040FFF7DFBF0000B9
:104300002C0000202DE9F04186B014216846FCF70E
:1043100015FA28480024016841F001010160016894
:1043200001F001010591016841F00201016000689E
:10433000214F00F002004FF4807505902246294677
:104340003846FCF7D8FEDFF8748001222946404643
:10435000FCF7D1FE002208214046FCF7CCFE0022EB
:1043600020214046FCF7C7FE009502260125039652
:10437000CDE9015469463846FCF7C0FD4FF494700E
:10438000CDE90005CDE9024669464046FCF7B6FD99
:104390001020CDE90004694640460294FCF7AEFDCA
:1043A00068028DE8310069464046FCF7A7FD06B07B
:1043B000BDE8F081303802400000024000040240B5
:1043C0002DE9FC5FDFF870A100278AF80070FFF785
:1043D00099FFFFF76BFFFFF771FF0520FCF76EFDFC
:1043E0000821002000F058F93F21012000F054F985
:1043F0000121022000F050F90321084600F04CF999
:104400001521042000F048F94C21052000F044F962
:104410002721062000F040F905224849102000F02D
:104420001BF9052245490A2000F016F9434D0020EA
:104430000AF102012A5C0A54401CC0B20528F9D3D3
:104440000421112000F028F900211D2000F024F99A
:1044500000211C2000F020F91D2000F0A7F818B959
:104460001C2000F0A3F898B1FFF730FF502000F0B7
:10447000BFF88AF80100732000F0BAF8FFF71EFFBA
:1044800000211D2000F008F900211C2000F004F993
:104490007021072000F000F9E120FFF723FFE22060
:1044A000FFF720FF0B21002000F0F6F80220FCF7B8
:1044B00005FDFFF7F3FE012400206E463754401C33
:1044C000C0B20528FAD3B1464FF00508FFF7FEFE4B
:1044D0000A2000F08DF883460027FF2000F088F8BE
:1044E00009F807007F1CFFB24745F6D3FFF7E6FE49
:1044F00057468AF801B00020315C2A5C914200D016
:104500000024401CC0B20528F6D3052000F04EF868
:104510004C2800D00024062000F048F8272800D0BE
:104520000024112000F042F8042800D000243C7040
:104530002046BDE8FC9F00002C000020986E00087B
:1045400070B5194E0546307880B17DB104290DD380
:10455000072000F02BF80446172000F027F8C007CA
:1045600006D014F0700F01D0FFF7B8FE002070BD28
:10457000FFF7ACFE612000F03BF870700024FF20D4
:1045800000F036F82855641CE4B2042CF7D3FFF78A
:1045900095FEFFF7A3FE172000F008F8C00701D131
:1045A000FFF79CFE012070BD2C00002010B50446D2
:1045B000FFF78CFE04F01F0000F01AF80449487061
:1045C000FF2000F015F80446FFF778FE204610BDE6
:1045D0002C00002008B500208DF800009DF8000098
:1045E000082803D29DF80000401CF5E708BD000034
:1045F0002DE9F0410024174F06462546300601D527
:10460000012200E0002220213846FCF774FD7006EC
:10461000060EFFF7DFFF012208213846FCF76BFD8D
:10462000FFF7D8FF6006040E10213846FCF75EFD48
:10463000012801D144F00104002208213846FCF78A
:104640005AFDFFF7C7FF6D1CEDB2082DD6D32046EB
:10465000BDE8F081000402402DE9F04116460F4606
:104660000446FFF733FE04F01F0040F02000FFF780
:10467000BFFF0546002404E0385DFFF7B9FF641C66
:10468000E4B2B442F8D3FFF719FE02484570284659
:10469000BDE8F0812C00002070B50D460446FFF700
:1046A00015FE04F01F0040F02000FFF7A1FF0446B4
:1046B0002846FFF79DFFFFF701FE024844702046A1
:1046C00070BD00002C0000208028A0F1800000EBCD
:1046D000C00202EB001007D43F2101EB80007F21D4
:1046E00090FBF1F000B207E06FF03F0101EB8000BA
:1046F000C11700EB5160C011642801DD64207047D0
:104700006FF063018842FADA0846704710B5FFF788
:1047100057FE044C2070FCF7F3FC00F57A706060E3
:1047200010BD0000340000200148007870470000F0
:1047300034000020F8B5040030D0194D287808B3B3
:104740000026354604216846FFF7FAFEC0B19DF801
:104750000000FFF7B9FF60809DF80100FFF7B4FF8C
:1047600020809DF80200FFF7AFFFE0809DF8030076
:10477000FFF7AAFF6D1C0126EDB2A080082DE1D342
:104780003046F8BDFCF7BCFC04466868844205D39B
:10479000FFF716FE287004F57A746C600020F8BDEF
:1047A0003400002000EE100ADFED070A9FED081A22
:1047B000B8EEC00A20EE200ADFED040A60EE200AFF
:1047C00080EE810A70470000DB0F49400000824202
:1047D00000008745DFED090A094901E030EE600A73
:1047E00010EE100A8842F9DC064900BF10EE100AEC
:1047F000884202D930EE200AF8E770470000B4433F
:1048000000003443000034C3EFF3108072B6034954
:10481000002891EC030A00D162B67047FC07002023
:1048200070B50D4C9FED0B0A84ED000A84ED010A72
:10483000FEF7C8FB84ED020A074D00240C35204624
:10484000FCF7BAFA45F82400641CE4B2042CF6D351
:1048500070BD000000000000FC07002030B50024FF
:104860002DED068B85B06D462046FCF7A5FA45F880
:104870002400641CE4B2042CF6D3484C0098216850
:10488000401AFFF78FFF01986168F0EE40AA401AC6
:10489000FFF788FF0298A168B0EE40AA401AFFF720
:1048A00081FF0398E168B0EE409A401AFFF77AFF63
:1048B000B0EE408A5FF0000055F8201044F8201058
:1048C000401CC0B20428F7D3FEF77CFBF0EE408A10
:1048D0003AEE8A0A9FED321A30EE090A70EE080AA3
:1048E000B5EE000A60EE800A60EE819A7AEE6A0AFE
:1048F00070EE890A70EEC80A20EE800ADFED290A00
:1049000020EE20AAEFF3108072B6244C0C3C94EDFC
:10491000028A00B962B638EEC80AFFF75BFFF0EE14
:10492000400AB0EE480AB6EE001A00EE810AFFF720
:1049300051FFDFED1D0A20EE201ADFED1C0A81EE8B
:10494000200AB0EE408A01F0F7FAB0EE409AB0EEDD
:10495000480A01F099FBF0EE400AEFF3108072B6BE
:1049600029EE890A94ED001A00280AEE600A30EE5A
:10497000010A84ED000A29EEA00AD4ED010A0AEE2C
:10498000090A30EE200A84ED010AC4ED028A00D142
:1049900062B605B0BDEC068B30BD000008080020F3
:1049A000F6287C3F8FC2753FDB0F4940000034433F
:1049B00008B500208DF800009DF80000082803D2FB
:1049C0009DF80000401CF5E708BD00002DE9FC4102
:1049D000044612480F46154600EBC71614E0694618
:1049E00000F01EF80020694623180A5C401CC0B283
:1049F000F2540528F8D3601D802802D20020311916
:104A00004871A41DE4B26D1C2878002803D0082F3B
:104A100001D27B2CE3D3BDE8FC810000FC03002025
:104A2000A0F13002092A05D8274A00EB8000104483
:104A3000F0381FE04D2837D00EDC41282BD006DCA3
:104A40002B2825D02D2820D03A2811D11AE0432830
:104A500024D044280CD124E058282ED004DC4F2840
:104A600025D0522804D125E0592829D06D281BD003
:104A700015483C380022835C8B54521CD2B2052A64
:104A8000F9D3704710483738F4E70F483238F1E768
:104A90000D482D38EEE70C482838EBE70A48233854
:104AA000E8E709481E38E5E707481938E2E706480D
:104AB0001438DFE704480F38DCE703480A38D9E741
:104AC0000148401FD6E70000D96E000810B501204C
:104AD00000F010F9012000F0FDF8002000F00AF9C4
:104AE000BDE81040002000F0F5B810B5002000F03F
:104AF00001F9012000F0EEF8BDE81040012000F0BF
:104B0000F9B870B505460024E80900F0F3F8012073
:104B100000F0E0F8002000F0DDF86806641C050EE7
:104B2000E4B2082CF0D3012000F0E4F8012000F0FA
:104B3000D1F8BDE87040002000F0CCB810B52DEDE4
:104B4000048B86B0FFF760FE00212B4CB0EE409A3C
:104B5000B0EE608AF0EE418A0B46002004EBC112F1
:104B60001354401CC0B28028FAD3491CC9B208298A
:104B7000F3D300F07BFD0446FFF7D6FD03461FA2EA
:104B8000122101A80094FBF74FFC002101AA08465E
:104B9000FFF71CFFB0EE490A00F042F803461AA2E4
:104BA000122101A8FBF740FC01AA02210020FFF717
:104BB0000DFFB0EE480A00F033F8034614A21221AC
:104BC00001A8FBF731FC01AA04210020FFF7FEFE3B
:104BD000B0EE680A00F024F803460FA2122101A8E3
:104BE000FBF722FC01AA06210020FFF7EFFE06B02A
:104BF000BDEC048B10BD0000FC030020433A25757A
:104C000020523A2575000000583A25376C640000A0
:104C1000593A25376C640000413A25356C64000030
:104C2000B5EEC00AF6EE000AF1EE10FA02DB30EE45
:104C3000200A01E030EE600ABDEEC00A10EE100A54
:104C40007047FBF7FDFE322001F058FEF9E7000047
:104C50002DE9F047DFF8549000244FF0100800BF12
:104C600044F0B00000F024F8404600F021F80020A5
:104C700000F01EF809EBC4178026FFF727FF782005
:104C8000FFF73FFF4020FFF73CFF0025785DFFF76F
:104C900038FF6D1CEDB2B542F8D3FFF726FF641C58
:104CA000E4B2082CDCD3BDE8F0870000FC03002050
:104CB00010B50446FFF70AFF7820FFF722FF002017
:104CC000FFF71FFF2046FFF71CFFBDE81040FFF76E
:104CD0000CBF000010B508B1012200E000224FF423
:104CE00080710348FCF707FABDE81040FFF760BE8B
:104CF0000008024010B508B1012200E000224FF484
:104D000000710348FCF7F7F9BDE81040FFF750BE0B
:104D10000008024070B504002DED0C8BF0EE62CA65
:104D2000F0EE428AB0EE41BAF0EE61AAF0EE409A9F
:104D3000B0EE60AA7DD0F0EE6A1AB0EE4B1AF0EE3B
:104D40004A0AB0EE690A00F097F9B0EE40CADFED0A
:104D5000420A424D20EE208A18EE100A9FED40DAFA
:104D6000A84201DAB0EE4D8A9FED3E0ADFED3E0A21
:104D700028EE800AC0EE20DAB0EE4B0AF0EE690AA7
:104D800070EE60BAB0EE6A0AF0EE4A0A30EE609A4F
:104D90002BEEAB0A09EE090A00F0B0F910EE100A8A
:104DA000F0EE408AB0F17E5F0DDAB0EE6D0A01F0F0
:104DB000C3F8F0EE40BAB0EE6D0A01F065F9B0EE5E
:104DC000409AF7EE008AB0EE690AF0EE4A0A84ECE7
:104DD000020AB0EE4B0A84ED060AF0EE6A0AC4ED50
:104DE000070AB0EE6D0A01F0A7F840EE089AB0EE9F
:104DF0006D0AC4ED029A01F047F900EE08AA8BEEA5
:104E0000A80A1CEE900A194984ED03AA884200EE14
:104E100048BA89EE280A84ED04BA40EE48AA9FED0C
:104E2000140AC4ED05AA01DCF0EE40CAC4ED08CABC
:104E300000E00DE084ED090AB5EE000A2CEE000A50
:104E400010EE100A84ED0A0AA84201DA84ED0ADAAB
:104E5000BDEC0C8B70BD00006666E63E0000A04213
:104E60000000A042DB0F49400000344300008C42A8
:104E700000008C4270B59FED1A0A05002DED068BDF
:104E80002BD095ED008A95ED019AF0EE408A012431
:104E9000F3EE08AA00EE104A2846F8EE400A80EE2B
:104EA000AA0A00F0F3F8B0EE40AAF0EE609AF0EE35
:104EB000601AB0EE401AF0EE490AB0EE480A00F06F
:104EC000DBF870EE288A641CE4B2B0EE4A8AB0EED9
:104ED000699A182CDED9B0EE680ABDEC068B70BD5D
:104EE00000000000DFED0A0A10B5F0EE401A0400E1
:104EF000B0EE600A0AD0B7EE001AB0EE610A00F018
:104F0000ABF82046BDE8104000F0C0B810BD00006E
:104F10000000000070B50C002DED048B88B0B0EEE1
:104F2000409A05469FED4B8AB7EE000A8DED008A48
:104F30008DED018A8DED028A8DED038A8DED048A57
:104F40008DED050A4FF001008DF8180078D0084665
:104F5000FFF790FF10EE100A4FF07E56F0EE408AF9
:104F6000B0420DDAD4E90601CDE90001B7EE000A3E
:104F7000204600F0CFF88DED020ACDED030A5FE088
:104F800089EE280AB7EE001AF0EE480A00F064F83D
:104F90008DED050A204600F079F88DEC020A2046D6
:104FA0009DED050A00F0B6F88DED020ACDED030A7D
:104FB0000598B04201DB012000E000208DF81800C8
:104FC000D4ED0A0AB7EE001A89EE200AF0EE480A7C
:104FD00000F042F878EEC90A94ED0A1AF0EE409A11
:104FE00080EE810AB7EE001AF0EE480A00F034F8BD
:104FF000F0EE400AB0EE691AF4EEC10AF1EE10FAD2
:1050000001D2B0EE601AB0EE080AF0EE000A21EE0E
:10501000000A61EE200A20EE010A60EE810A00EE2D
:10502000C10A94ED081AD4ED090A31EE601A41EE76
:10503000000ACDED040A9DF8180008B18DED048A30
:105040001C2269462846FBF71DFB08B0BDEC048B0B
:1050500070BD000000000000B4EEE00AF1EE10FAAE
:1050600002D2B0EE600A7047B4EEC10AF1EE10FA57
:10507000F9DDB0EE410A704731EE400A71EEE00A08
:1050800020EE000A00EEA00A00F038B8F7EE000AA1
:10509000B0EE083A70EEC00A20EE002AD0ED003AD9
:1050A00060EEA02A62EE001A22EEA01A62EE832AB7
:1050B00060EE830A62EE802A90ED020A20EE822AD8
:1050C000D0ED040A22EE800A01EE230A02EE200A45
:1050D000D0ED060A01EEA00AD0ED030A62EEA00AA6
:1050E000D0ED012A41EE220A90ED051A42EE010AA6
:1050F00090ED071A41EE810A70470000B5EEC00A34
:10510000F1EE10FA02D89FED020A704701F084B860
:1051100000000000F7EE000A90ED022A70EEC00ACF
:10512000F0EE082A90ED001A90ED043A60EEA21A13
:1051300032EE411A73EE423AB1EE082A61EEA01A3D
:1051400060EE820A60EE222A21EE211A20EE802AE9
:10515000D0ED060A62EE802A02EE231A70EEC30A30
:1051600002EEA01AD0ED010AB0EE410A90ED031A4A
:1051700071EE600A60EEA10AD0ED051A31EEC11A97
:1051800042EE010A90ED071A31EE611A42EE810AF1
:105190007047FBF77FB80000B0F5803F02DB4FF6A9
:1051A000FF70704710F5803FFBDC0148704700003E
:1051B0000100FFFF10B50A4900EBC0029FED070A8E
:1051C00001EB8204002184ED070A84ED080A2161C5
:1051D000A161FBF7F1FD606110BD0000000000005F
:1051E0007C08002070B52DED048BFBF71BFE00241E
:1051F0009FED0E8A0E4D9FED0F9A2646F1EE048A22
:1052000004EBC40005EB800080EC038AC6602046F6
:10521000FFF7D0FF641CE4B2042CF1D3FBF770FF5E
:1052200005490860BDEC048B70BD00000000C84358
:105230007C080020000000007C00002010B504461F
:1052400004280FD20846FFF7A7FF074A04EBC40162
:1052500002EB81010028C86004D12046BDE810405F
:10526000FFF7A8BF10BD00007C08002070B50C46F9
:1052700001461D4616460020FFF7E0FF21460120AB
:10528000FFF7DCFF31460220FFF7D8FF2946BDE8D3
:1052900070400320FFF7D2BF70B50024084E2546AA
:1052A00004EBC40006EB8000C5602046FFF782FFD8
:1052B000641CE4B2042CF3D3BDE87040FEF7B6BB27
:1052C0007C08002008B501F051FC009000F006F8C1
:1052D0000A21684601F010FCF8E7000070B52DEDDA
:1052E000028BFBF70DFF41490A68821A0A2A79D31B
:1052F0000860FBF7B5FD3E4E9FED3E8A0025F6EEB9
:10530000008A00BF05EBC50006EB80042846FBF7CA
:1053100053FD6169411AC4E90410E068F8B100EE78
:10532000100A9FED351ADFED361AB8EEC00A60EEAE
:10533000080A80EE810A00EE901AF8EEE00A30EEDC
:10534000601A94ED070ADFED2D0A30EE010AB4EE83
:10535000E00AF1EE10FA07D2B0EE600A0BE0284640
:10536000FFF728FF002136E0B4EEE10AF1EE10FA73
:1053700001DDB0EE610A84ED070A94ED080A84EDC0
:10538000081A71EE400A00EE100AB8EEC00A60EE8C
:10539000081A81EE880AD4ED001A01EE810A94ED14
:1053A000011AD4ED071A01EE210A94ED021A01EE5A
:1053B000200AB5EEC00AF1EE10FA02DB30EE280A40
:1053C00001E030EE680ABDEEC00A10EE100AFFF7E9
:1053D000E3FE0146A0612846FEF7BCFA6D1CEDB263
:1053E000042D8FD3BDEC028B70BD00007C0000202B
:1053F0007C0800200000C84200FF7F47000096C3E1
:10540000000096431CB56846FFF794F9002812D0B7
:10541000094CBDF800002080BDF802006080BDF896
:105420000400A080BDF80600E08001202072FBF798
:1054300067FEE06001201CBD640200204A429042E9
:1054400002DD884200DA00207047B4EEE00AF1EE97
:1054500010FA02D2B0EE600A7047B4EEC10AF1EE63
:1054600010FAF9DDB0EE410A704700002DE9F05F57
:105470002DED028BFDF778FFFFF7F0F9FFF7C2FF84
:10548000514C8246207A002870D0FBF739FE064640
:10549000E068301AB0F5FA7F06D9BDEC028B002027
:1054A000BDE8F05F00F03CB9B4F900000A21FFF755
:1054B000C5FF8346B4F902000A21FFF7BFFF80460B
:1054C000B4F906001221FFF7B9FF0546B4F904004C
:1054D0001221FFF7B3FF284405B205F10E003B4C43
:1054E0004FF000091D2802D284F801900BE005F16D
:1054F0001E003D2807D36078032805D2401CC0B2A7
:105500006070032800D200255BEA080009D02078EB
:10551000032804D2401CC0B22070032803D3012703
:1055200002E084F8009000273846FDF7FFFE2F4385
:1055300010D0C4E901692846FDF7BCFC0246DDB184
:10554000C8F1000001B2BDEC028B5846BDE8F05F27
:10555000FBF724BBBAF1000F32D0A06800B9A660F7
:10556000606818B1A068301A502829D3BDEC028BAE
:10557000BDE8F05FFFF790BE00EE100A9FED141A31
:10558000F8EEC00A80EE810A9FED121ADFED120AD2
:10559000FFF75BFFC8F10000F0EE408A00B200F0B8
:1055A00077F8B0EE408A584600F072F8B0EE681A0C
:1055B000F0EE480ABDEC028BBDE8F05FFBF74EBB96
:1055C000BDEC028BBDE8F09F6402002020000020AB
:1055D0000000C8426666E63E6666E6BE2DE9F0411A
:1055E000FFF710FF194C207A00282BD0FBF788FD1D
:1055F000E168401AB0F5FA7F03D9002000F090F876
:1056000022E0B4F900000A21FFF718FF0546B4F9BB
:1056100002000A21FFF712FF0646B4F90600122124
:10562000FFF70CFF0746B4F904001221FFF706FF4D
:10563000384400B2354304D11E2802DC10F11E0F9D
:1056400002DA0120BDE8F0810020FBE764020020BF
:1056500010B5002000F064F8FFF758F80248002168
:105660004160816010BD00002000002010B5074C93
:10567000207A002807D0FBF743FDE168401AB0F517
:10568000FA7F01D9002010BD012010BD6402002066
:1056900000EE100A10B59FED171ADFED170AB8EEED
:1056A000C00AFFF7D2FEBAEE041AF2EE040AB4EE14
:1056B000C10AF1EE10FA07DDB4EEE00AF1EE10FADD
:1056C00002D29FED0E0A10BD9FED0D1AB5EEC00A75
:1056D000F1EE10FA02DD70EE600A01E070EE200AD1
:1056E000BDE8104080EE810AB7EE001AFFEE000A16
:1056F000FFF7ABBE0000C8420000C8C200000000B7
:105700000000B442FEF736FB20B1FFF767FF18B187
:10571000FEF7BCFBFFF7AAFE052001F0EFF8F1E76A
:1057200070B50B4D00242C806C80AC80EC8028B1CF
:1057300001202872FBF7E4FCE86001E02C72EC60C9
:10574000FFF7AAFD0348047044704460846070BD94
:105750006402002020000020FAF76EBD10B5B7EEFD
:10576000001AFFEE000AFBF709FB9FED091AB5EEE0
:10577000C00AF6EE000AF1EE10FA02DB40EE010A72
:1057800001E050EE010ABDEEE00A10EE100A10BD75
:1057900000FF7F4710B5FBF747FF01F0D9F901285B
:1057A00003D0BDE8104001F063B910BD30B593B02F
:1057B00030216846FAF7C2FF14210CA8FAF7BEFFA1
:1057C0001E480025016841F080510160006800F02A
:1057D000805011901A48016841F4804101600068CE
:1057E000022400F4804011900120009000040190F8
:1057F0008001CDE90640082008904FF4A870CDE95B
:10580000090407200B906846FCF776F808B172B6D9
:10581000FEE70CA90F2081E831004FF4A0500F9053
:105820004FF48050109005210CA8FBF78BFF002847
:1058300001D072B6FEE713B030BD00004038024020
:10584000007000400248016841F470010160704737
:1058500088ED00E0F0B50268274B284D284E294F0F
:10586000294C4FF0804C984209D0604507D0A8429F
:1058700005D0B04203D0B84201D0A04204D122F0FA
:10588000700E4A6842EA0E0298421BD0604519D059
:10589000A84217D0B04215D0B84213D0A04211D0C0
:1058A0001A4DA8420ED01A4DA8420BD0194DA8424D
:1058B00008D0194DA84205D0184DA84202D0184D65
:1058C000A84203D122F44075CA682A434D6922F0E8
:1058D00080022A438D68C5620D688562984201D0B6
:1058E000A04201D109690163016841F0040101602E
:1058F000012141610260F0BD000001400004004050
:1059000000080040000C004000040140004001403D
:10591000004401400048014000180040001C0040C5
:105920000020004010B501F01F030121046A9940D6
:105930008C430462016A9A401143016210BD10B5A4
:10594000846842EA032224F47F440A4322438260AB
:1059500010BD826822F070020A4342F007018160A4
:1059600070470000F0B5026A036A23F00103036286
:1059700043688469134E24F073050C682C4322F0AD
:1059800002058A682A430E4DA84201D0B04207D1D1
:10599000076A27F00407076222F00807CA683A433B
:1059A000A84201D0B04205D14D6923F440731D4394
:1059B0008B692B4343608461496841630262F0BD97
:1059C0000000014000040140F0B5026A036A23F0C0
:1059D00010030362436884690D6824F4E64444EAD2
:1059E00005248D6822F0200242EA0512104D114E66
:1059F000A84201D0B04208D1076A27F040070762E9
:105A0000CF6822F0800242EA0712A84201D0B042D9
:105A100007D14D6923F4406343EA85038D6943EA66
:105A2000850343608461496881630262F0BD0000C0
:105A30000000014000040140F0B5026A036A23F44B
:105A4000807303624368C46922F4007224F0730512
:105A50000C68134E2C438D6842EA05220F4DA84274
:105A600001D0B04208D1076A27F480670762CF6887
:105A700022F4006242EA0722A84201D0B04207D1D4
:105A80004D6923F4405343EA05138D6943EA051336
:105A90004360C4614968C1630262F0BD0000014017
:105AA0000004014030B5046A026A22F480520262A6
:105AB0004268C3690D6823F4E64343EA05238D6811
:105AC00024F4005444EA0534084DA84202D0084D9D
:105AD000A84204D14D6922F4804242EA8512426014
