:020000040800F2
:100000000007002089010008E3120008CD11000854
:10001000E112000835040008511700080000000034
:10002000000000000000000000000000C7160008EB
:100030003704000800000000C5160008C9160008B3
:10004000A3010008A3010008A3010008A301000800
:10005000A3010008A3010008A3010008A3010008F0
:10006000A3010008A3010008A3010008A3010008E0
:10007000A3010008A3010008A3010008A3010008D0
:10008000A3010008A3010008A3010008A3010008C0
:10009000A3010008A3010008A3010008A3010008B0
:1000A000A30100082D170008A3010008A301000800
:1000B000A3010008A3010008A3010008A301000890
:1000C000A3010008A3010008A3010008A301000880
:1000D000A3010008A3010008A3010008A301000870
:1000E000A3010008A3010008A301000800F002F822
:1000F00000F03AF80AA090E8000C82448344AAF188
:100100000107DA4501D100F02FF8AFF2090EBAE885
:100110000F0013F0010F18BFFB1A43F0010318473B
:100120002817000048170000103A24BF78C878C18B
:10013000FAD8520724BF30C830C144BF04680C60ED
:10014000704700000023002400250026103A28BF35
:1001500078C1FBD8520728BF30C148BF0B60704739
:100160001FB51FBD10B510BD00F05CF81146FFF7BC
:10017000F7FF01F0FFFA00F07AF803B4FFF7F2FF9F
:1001800003BC00F07DF8000009488047094800479B
:10019000FEE7FEE7FEE7FEE7FEE7FEE7FEE7FEE737
:1001A000FEE7FEE704480549054A064B7047000094
:1001B0002B170008ED0000080001002000070020B8
:1001C00000030020000300204FF0000200B513469A
:1001D00094469646203922BFA0E80C50A0E80C5067
:1001E000B1F12001BFF4F7AF090728BFA0E80C5018
:1001F00048BF0CC05DF804EB890028BF40F8042B11
:1002000008BF704748BF20F8022B11F0804F18BF7D
:1002100000F8012B704770477047704700487047DF
:10022000A00000207546FFF7F9FFAE4605006946BD
:10023000534620F00700854618B020B5FFF7B2FFFF
:10024000BDE820404FF000064FF000074FF00008D7
:100250004FF0000B21F00701AC46ACE8C009ACE858
:10026000C009ACE8C009ACE8C0098D46704710B5BC
:100270000446AFF300802046BDE81040FFF77DBF85
:1002800001491820ABBEFEE72600020070470000BF
:1002900070B5044600688168C943C90717D18168F1
:1002A00021F00101816000F03FFC05460AE000BF3B
:1002B00000F03AFC401B022804D920688068C04343
:1002C000C00706D020688068C043C007F0D0002077
:1002D00070BDA06A40F01000A062E06A40F001002A
:1002E000E062012070BD0000F8B5002604460096CB
:1002F00000688168C943C9072DD0816841F00101B8
:100300008160164816490068B0FBF1F000E0401E1D
:1003100000900028FBD100F007FC054616E000BF66
:1003200000F002FC401B022810D920688068C043FE
:10033000C0070BD0A06A40F01000A062E06A40F055
:100340000100E06284F824600120F8BD2068806824
:10035000C043C007E4D10020F8BD00000C0000201D
:1003600040420F000EB56946009001200190052023
:1003700002900C4800F0CEF808B100F05DF8094892
:1003800000F078FA08B100F057F84FF0FF31054857
:1003900000F0D2F908B100F04FF8024800F038F947
:1003A00080B20EBD7000002010B586B000241D483C
:1003B00002940394816941F400718161816901F4BF
:1003C00000710491816941F004018161816901F04A
:1003D00004010491416821F4404141F4004141602D
:1003E0000F2000900320019069460F4800F0A2FA08
:1003F0000F480E4984600160047304754FF4602156
:100400004460C1610121016100F006F908B100F00A
:1004100013F8074800F012F8002801D000F00CF89B
:1004200006B010BD00100240000801400024014049
:1004300070000020FEE7704772B6FEE7F8B50025B1
:100440000446009590F8240001280BD0012084F880
:1004500024002046FFF71CFF2046FFF745FF06005B
:1004600002D050E00220F8BDA06A20F4885040F08D
:100470000200A062022000F0E7FB25490968B1FBF9
:10048000F0F0400000E0401E00900028FBD1206802
:10049000816841F00801816000F046FB074608E0F2
:1004A00000F042FBC01B0A2803D9206880680007BF
:1004B00015D4206880680007F2D42068816841F074
:1004C0000401816000F030FB074612E000F02CFBD5
:1004D000C01B0A280DD920688068400709D5A06A8A
:1004E00020F0020040F01000A06284F824500120A7
:1004F000F8BD206880684007E8D4A06A20F00200B8
:1005000040F00100A06284F824503046F8BD00009D
:100510000C000020F8B50024009490F82420254613
:10052000012A12D0012280F824204A681F23072ABA
:100530000DD20668776B521E02EB820293409F43F6
:100540000B6893401F43776319E00220F8BD0668EB
:100550000D2A0AD2376BD21F02EB820293409F43CF
:100560000B6893401F43376309E0F76A0D3A02EBCB
:10057000820293409F430B6893401F43F7620A68CF
:10058000072306680A2A0AD3F7680A3A02EB4202EE
:1005900093409F438B6893401F43F76008E037699F
:1005A00002EB420293409F438B6893401F433761A5
:1005B0000A68102A01D0112A20D1124B02689A42EF
:1005C00017D193681B0219D4936843F40003936016
:1005D0000968102912D10C490C4A0968B1FBF2F1E3
:1005E00001EB8101490000E0491E00910029FBD187
:1005F00004E0816A41F020018162012480F82450E6
:100600002046F8BD002401400C00002040420F00AD
:100610000068C06C704700002DE9F0414FF0000702
:1006200004003D467ED0A06A002628B9E66284F820
:100630002460204600F07EF82046FFF729FEA16ADC
:10064000C90600D420B1A06A40F01000A06269E0A1
:10065000A16A21F4885141F00201A1626268E16956
:10066000237B0A4347EA43010A43A1684FF480779A
:10067000B94209D0012907D05FF0000194F814C0F5
:10068000BCF1010F02D00AE03946F7E7F3B1A36AE3
:1006900043F02003A362E36A43F00103E3622368AB
:1006A000D3F804C02CF4694C4CEA010CC3F804C024
:1006B00021688B68DFF870C003EA0C0313438B607A
:1006C000A168B9420BD0012909D00CE0DFF85CC069
:1006D000A3690CEB43330B4343F40061DFE7218A4A
:1006E0000D05A5F580152168CB6A23F470032B4313
:1006F000CB62216889680E4B1940914208D1E662AD
:10070000A16A21F0020141F00101A162BDE8F0817E
:10071000A06A20F0020040F01000A062E06A40F001
:100720000100E0620120F1E7FDF7E1FF00E0FFFFDB
:10073000FE0E1FFF704700002DE9F84300270D460D
:100740000446009700F0F0F9804620688168C905EA
:1007500008D5A06A40F02000A06284F8247001202F
:10076000BDE8F8834168C90503D4C06A10F4700F6E
:100770002AD0022000F068FA3B490968B1FBF0F684
:100780002068036939490B424FEA61014FEAA1121F
:100790001FD1C3684FEA611C13EA0C0F19D103691A
:1007A0000B4225D1C068104222D1142023E0681CDE
:1007B0000AD02DB100F0B8F9A0EB0800A84203D987
:1007C00020680068800725D5206800688007EED57E
:1007D0002DE003690B4202D1C168114206D00269C3
:1007E00023490A4206D1C068084203D1542002E0DE
:1007F000292000E0FC204643009816E0681C11D038
:100800002DB100F091F9A0EB0800A8420AD9009898
:10081000B04207D2A06A40F00400A06284F82470BD
:1008200003209DE70098401C0090B042E6D3216869
:100830006FF012000860A06A40F40070A0622068A7
:100840008068C0F3424007280CD1207B50B9A06AD1
:1008500020F48070A062A06AC00403D4A06A40F0B3
:100860000100A06200207BE70C00002024499224B4
:100870004992240070B5044690F8240001280DD058
:10088000012084F824002046FFF72EFD02004FF0DF
:10089000000005D084F82400104670BD022070BD11
:1008A000A16A40F20123994341F48071A1621F4D76
:1008B00023681F49AB4218D10E6816F4702F14D06C
:1008C000A66A46F48016A6620E68760505D5A66A65
:1008D00026F4005646F48056A662A66AF6040AD5A7
:1008E000E66A26F00606E66206E0A66A26F48016A8
:1008F000A6625E68E9E7E06284F824006FF0020017
:10090000186020688368C3F34243072B05D1A842CF
:1009100008D1096811F4702F04D0816841F4801166
:100920008160B9E7816841F4A001F9E7002801403E
:10093000042401402DE9F84FDFF8B8910024A9F113
:10094000040B23460F2709F1040AABF1040EC9E09A
:100950000125A5402A40AA427DD1674ED1F804C0A6
:10096000ACEB0608B44532D014DCBCF1030F3AD02E
:1009700009DCBCF1000F2AD0BCF1010F1CD0BCF186
:10098000020F31D11DE0BCF1110F17D0BCF1120FD5
:100990002AD119E0B8F5881F19D006DCB8F5803FD8
:1009A00015D0B8F5801F1FD111E0B8F5001F0ED08B
:1009B000B8F5041F18D10AE0CB6815E0CB681B1D01
:1009C00012E0CB6808330FE0CB680C330CE08B6887
:1009D0002BB1012B4FF0080303D0456104E0042341
:1009E00002E0056100E00023FF2A01D8064601E08D
:1009F00000F104064FEA840501D9A5F12005D6F8D7
:100A0000008007FA05FC28EA0C0803FA05F548EA15
:100A10000508C6F800804D68ED0062D5374DAE6917
:100A200046F00106AE61AD6924F0030605F001054C
:100A30000095334D06EB050CDCF80850A607360F81
:100A400007FA06F825EA0805DFF8B880404503D123
:100A50004FF0000817E044E0DFF8AC80404502D1D9
:100A60004FF001080FE0DFF8A480404502D14FF0BD
:100A7000020808E0DFF89880404502D14FF00308F3
:100A800001E04FF0040808FA06F848EA0508CCF837
:100A900008804D68D9F80060ED024D4601D5164337
:100AA00000E096432E604D68DAF80060AD025546CE
:100AB00001D5164300E096432E604D68DBF80060D8
:100AC000AD035D4601D5164300E096432E604D68A8
:100AD000DEF80060ED03754601D5164300E096434D
:100AE0002E60641C0D682A46E5407FF431AFBDE8F6
:100AF000F88F0000080401400000111000100240AF
:100B00000000014000080140000C014000100140BD
:100B1000001401408068084000D0012070470AB1ED
:100B2000016170470904FBE70148806870470000D5
:100B300000000020024881680278114481607047FB
:100B400000000020074810B5016841F01001016065
:100B5000032000F067F80F2000F006F800F024F8FA
:100B6000002010BD0020024070B50D4D04464FF42A
:100B70007A712878B1FBF0F00A490968B1FBF0F00E
:100B800000F010FB48B9102C07D200222146501E5D
:100B900000F028F800206C6070BD012070BD0000DE
:100BA000000000200C0000200C4808B5816941F0CD
:100BB00001018161816901F001010091C16941F088
:100BC0008051C161C06900F08050009004484168C4
:100BD00021F0E06141F00071416008BD0010024069
:100BE00000000140F0B40E4B1B680C46C3F3022317
:100BF000C3F10705042D00D90425191D072901D2C9
:100C0000002300E0DB1E012606FA05F1491E214003
:100C100099409E40761E16403143F0BC00F099BDCD
:100C20000CED00E0064900F0070208684FF6FF03EC
:100C3000184040EA0220034A104308607047000051
:100C40000CED00E00000FA0510B501460020234C31
:100C5000012922D0022939D010291DD161682268CA
:100C6000D20119D51E48C1F38342C903805C0AD55D
:100C700061681B4AC1F34041921E515C194AB2FBA4
:100C8000F1F1484301E0184948436168490203D43F
:100C900040000321B0FBF1F010BD226AC2F3012134
:100CA000012903D1920701D5C80310BD022905D13E
:100CB000626A920702D549F6404010BD0329FCD173
:100CC00021688903F9D54FF2244010BD00F0A4F843
:100CD0006168C1F38131491C4900DBE70010024023
:100CE0002018000800127A0000093D002DE9F047A5
:100CF0000F46050061D0434E306800F00700B8424F
:100D000009D2306820F0070038433060306800F0C6
:100D10000700B84251D128683B4C810712D54007E3
:100D200003D5606840F4E06060602878000703D570
:100D3000606840F4605060606068A96820F0F0006E
:100D4000084360602878C00728D06868012810D060
:100D50002168022810D0890700292EDA616821F065
:100D6000030101436160FFF7DFFE804641F28839ED
:100D70000DE021688903EFE78901EDE7FFF7D4FE75
:100D8000A0EB0801494502D90320BDE8F08760685F
:100D9000696800F00C00B0EB810FEFD1306800F013
:100DA0000700B8420BD9306820F0070038433060A4
:100DB000306800F00700B84201D00120E5E728784C
:100DC000400705D56068E96820F4E060084360608A
:100DD0002878000706D56068296920F4605040EA49
:100DE000C100606000F028F86168084AC1F303118F
:100DF000515CC8400649086006480068FFF7B4FE29
:100E00000020C2E700200240001002403018000815
:100E10000C000020040000200448054900684968CF
:100E2000044AC1F3C221515CC84070470C00002045
:100E300000100240401800080E4A51680E4801F0A8
:100E40000C03042B11D0082B0FD10C48C1F38343A2
:100E5000C903C05C0AD55168084AC1F34041921EDB
:100E6000515C054A5043B0FBF1F0704704494843D8
:100E7000704700000010024000127A000E180008AF
:100E800000093D002DE9F84F040070D02078C04DD6
:100E9000C00749D06868C0F38100012807D068689E
:100EA000C0F38100022809D16868C00306D528680C
:100EB000800339D560680028E7D035E06068B0F578
:100EC000803F0BD010B1B0F5A02F11D0286820F4CE
:100ED00080302860286820F4802002E0286840F4F0
:100EE00080302860606890B1FFF71EFE06460AE079
:100EF000286840F480202860F0E700BFFFF714FE68
:100F0000801B642873D828688003F7D50CE0FFF7AE
:100F10000BFE064605E000BFFFF706FE801B6428B7
:100F2000F0D828688003F7D420789A4E80074FF0D5
:100F300001094FF0000839D5686810F00C0F07D090
:100F40006868C0F38100022809D16868C00306D42C
:100F50002868800714D52069012808D110E020698D
:100F6000B0B1C6F80090FFF7DFFD074605E00AE1E3
:100F7000FFF7DAFDC01B0228C4D828688007F7D520
:100F80002868616920F0F80040EAC10028600DE09F
:100F9000C6F80080FFF7C8FD074604E0FFF7C4FD70
:100FA000C01B022823D828688007F7D420780007C0
:100FB0002CD57948A169D9B1C0F80090FFF7B4FDEC
:100FC000074604E0FFF7B0FDC01B02280FD8686A8F
:100FD0008007F7D571484FF4FA510068B0FBF1F083
:100FE000009000BF0098411E0091FAD20EE080E010
:100FF000C0F80080FFF798FD074604E0FFF794FD76
:10100000C01B022875D8686A8007F7D4207840078B
:1010100060D5E8690027C00008D4E86940F0805036
:10102000E861E869012700F0805000905C480168A1
:10103000C90513D40168834641F480710160FFF74C
:1010400073FD824606E000BFFFF76EFDA0EB0A00CD
:1010500064284ED8DBF80000C005F5D5E06801280B
:101060000AD008B1052813D0286A20F001002862B0
:10107000286A20F0040002E0286A40F0010028629B
:10108000E06841F2883B98B1FFF74EFD82460BE0E5
:10109000286A40F004002862EEE700BFFFF744FD35
:1010A000A0EB0A0159455AD8286A8007F6D50CE00A
:1010B000FFF73AFD824605E0FFF736FDA0EB0A0197
:1010C00059454CD8286A8007F6D41FB1E86920F04A
:1010D0008050E861E06988B36968C1F38101022941
:1010E00044D00228C6F8608004D0FFF71DFD0446F6
:1010F00038E034E0FFF718FD074604E0FFF714FD81
:10110000C01B02282BD828688001F7D4206AB0F5CC
:10111000803F05D16868A16820F40030084368600A
:10112000D4E908010843696821F474110843686030
:10113000C6F86090FFF7F8FC044606E025E000BF23
:10114000FFF7F2FC001B022809D828688001F7D5B8
:101150001BE000BFFFF7E8FC001B022802D90320B8
:10116000BDE8F88F28688001F4D40EE00128F7D09C
:101170006868226A00F48031914204D1616A00F407
:101180007010884201D00120EAE70020E8E7000063
:101190000010024000004242800442420C00002045
:1011A0000070004010B5401EB0F1807F01D30120D7
:1011B00010BD4FF0E02460610F21601700F0C9FA04
:1011C0000020A06107202061002010BDFEE740F64E
:1011D000FF71B0F5805F00D30846C0EB002000F23D
:1011E000FF70B0FBF1F0C0B27047000070B52E4C3C
:1011F00040212046FFF78EFCC8B380212046FFF730
:1012000089FCA8B3294D01212846FFF783FC80B350
:1012100002212846FFF77EFC60B304212846FFF731
:1012200079FC40B321152846FFF774FC70B3E11434
:101230002046FFF76FFC58B3A1142046FFF76AFC65
:1012400040B320212846FFF765FC28B340212846FB
:10125000FFF760FC10B310212046FFF75BFCF8B1EC
:1012600020212046FFF756FCE0B1002070BD03E0CE
:1012700004E005E006E007E00120F7E70220F5E7DB
:101280000320F3E70420F1E70520EFE70620EDE770
:101290000720EBE70820E9E70920E7E70A20E5E770
:1012A0000B20E3E70C20E1E700080140000C0140BF
:1012B00010B50A4C2078401CC0B2207014280CD302
:1012C000002020706078A070FFF790FF6070002809
:1012D00003D1A078002800D0E07010BD10000020DD
:1012E000FEE7FEE710B5002000F086F9E22000F0EE
:1012F000E1F8BDE81040012000F07EB910B50020F3
:1013000000F07AF9E12000F0D5F8BDE810400120A6
:1013100000F072B9F0B5164885B0816941F0080156
:1013200081618069012500F0080004904FF4384085
:1013300000240326CDE900050E4FCDE9024669469B
:101340003846FFF7F7FAA8038DE87100694638467A
:10135000FFF7F0FA002000F043F9012000F04CF90B
:10136000002000F061F9002000F052F905B0F0BD56
:1013700000100240000C014010B5FFF7CBFF082120
:10138000002000F05DF93F21012000F059F9012112
:10139000022000F055F90321084600F051F915210B
:1013A000042000F04DF94C21052000F049F92721D7
:1013B000062000F045F90421112000F041F9052232
:1013C0001C49102000F04EF91A490522491D0A2037
:1013D00000F048F900211D2000F032F900211C2006
:1013E00000F02EF91D2000F033F818B91C2000F091
:1013F0002FF898B1002000F0FFF8502000F05AF8C4
:10140000732000F057F8012000F0F6F800211D20AD
:1014100000F016F900211C2000F012F9FFF76EFF12
:10142000FFF760FF7021072000F00AF9BDE81040C7
:1014300000F02CB81C00002010B54FF48041034888
:10144000FFF768FB012800D0002010BD000C014010
:1014500010B50446002000F0CFF8204600F02AF82E
:10146000FF2000F027F80446012000F0C5F82046D0
:1014700010BD10B5002000F0BFF8FF2000F01AF8F2
:101480000446012000F0B8F8204610BD10B5002039
:1014900000F0A6F80020FFF7DBFFFF2809D040F09E
:1014A0000301002000F0CCF8BDE81040012000F05E
:1014B00097B810BD70B504460025200601D501205F
:1014C00000E0002000F0A4F86006040E012000F007
:1014D000ABF8FFF7B1FF08B144F00104002000F0C1
:1014E000A3F86D1CEDB2082DE7D3204670BD0000B7
:1014F00070B5002400F04CF87021072000F0A0F82F
:10150000FFF7FCFE05222149102000F0ABF8052270
:101510001E490A2000F0A6F81C480421083800F0F3
:10152000BAF800F046F8FFF7FFFA05464FF47A766E
:10153000FFF79FFFC0F30111032903D0C10603D5B4
:1015400002240FE003240DE0800601D5012409E008
:10155000FFF7EAFA401B082803D2641CA4B2B44285
:10156000E6D30424002000F03BF83021072000F0EF
:1015700067F8FFF7C3FE05490522491D0A2000F060
:1015800071F8FFF783FF204670BD00001C000020AB
:1015900010B5002000F024F80020FFF759FFFF28C5
:1015A00006D040F00201BDE81040002000F048B82D
:1015B00010BD10B5002000F013F80020FFF748FF21
:1015C000FF280BD020F0010040F00201002000F0C5
:1015D00037F8BDE81040012000F002B810BD00004F
:1015E00008B1012200E000224FF400610148FFF73A
:1015F00096BA0000000C014008B1012200E0002270
:101600004FF480510148FFF78ABA0000000C0140F6
:1016100008B1012200E000224FF400410148FFF729
:101620007EBA0000000C014008B1012200E0002257
:101630004FF400510148FFF772BA0000000C01405E
:1016400070B504460D460020FFF7D6FF44F0200099
:10165000FFF730FF2846FFF72DFFBDE8704001205F
:10166000FFF7CABF70B5044615460E460020FFF7C7
:10167000C3FF44F02000FFF71DFF002404E0305DAD
:10168000FFF718FF641CE4B2AC42F8D3BDE8704029
:101690000120FFF7B1BF70B506460D460020FFF7E9
:1016A000ABFFA020FFF706FF002404E0305DFFF74A
:1016B00001FF641CE4B2AC42F8D3BDE870400120E5
:1016C000FFF79ABF70477047FFF734BA30B58FB055
:1016D00028216846FEF778FD14210AA8FEF774FD5C
:1016E00001210804CDE90010002402940225049190
:1016F000CDE907504FF4E01009906846FFF7C2FBB0
:1017000008B172B6FEE70F20CDE90A054FF48060FC
:10171000CDE90C4002210AA80E94FFF7E7FA002851
:1017200001D072B6FEE70FB030BD704707480068C1
:101730000169C943C90707D1C168C943C90703D1B2
:10174000891E0161FFF7B4BD70470000280000202A
:10175000FEE70907090E002804DB00F1E02080F80D
:101760000014704700F00F0000F1E02080F8141D15
:101770007047000008B5FFF7E5F9FFF7A7FF21481C
:10178000816941F020018161816901F020010091AE
:10179000816941F004018161816901F004010091D6
:1017A000816941F008018161806900F008000090C2
:1017B000FEF7FAFDFFF7E0FDFFF7B6F9A0F10A0426
:1017C000FFF7B2F9011B0A29FAD304460020FEF7FD
:1017D000C9FDFFF7FCFC0C4D28700120FEF7C2FD8F
:1017E000FFF7F5FC68700220FEF7BCFDFFF7EFFC89
:1017F000A8700320FEF7B6FDFFF7E9FCE870FFF7DD
:1018000077FEDDE700100240140000200102020311
:101810000405060708090A0B0C0D0E0F1010010233
:1018200002030405060708090A0B0C0D0E0F101021
:101830000000000000000000010203040607080980
:1018400000000000010203046818000800000020E6
:101850002800000028010008901800082800002037
:10186000D80600004401000801000000100000003C
:101870000000000000127A000000000000000000DC
:10188000000000001122334455112233445500005A
:04000005080000ED02
:00000001FF
